:020000040800F2
:100000000000082405100008050E00080D0E000869
:10001000150E00081D0E0008250E00080000000047
:10002000000000000000000000000000317F000818
:100030002D0E00080000000081810008E981000801
:1000400059100008591000085910000859100008EC
:1000500059100008591000085910000859100008DC
:1000600059100008591000085910000859100008CC
:1000700059100008591000085910000859100008BC
:1000800059100008591000085910000859100008AC
:10009000591000085910000859100008591000089C
:1000A000591000085910000859100008591000088C
:1000B000591000085910000859100008591000087C
:1000C000591000085910000859100008591000086C
:1000D000591000085910000859100008591000085C
:1000E0003B0E0008591000080000000059100008DD
:1000F000591000085910000859100008591000083C
:10010000591000085910000859100008591000082B
:100110005910000859100008490E0008591000082D
:10012000591000085910000859100008591000080B
:10013000591000085D0E00085910000859100008F9
:1001400059100008591000080000000000000000CD
:1001500059100008591000085910000859100008DB
:1001600059100008591000085910000859100008CB
:1001700059100008591000085910000859100008BB
:1001800059100008591000085910000859100008AB
:10019000591000085910000859100008591000089B
:1001A000591000085910000859100008591000088B
:1001B000591000085910000859100008591000087B
:1001C000591000085910000859100008591000086B
:1001D000591000085910000859100008591000085B
:1001E000591000085910000859100008591000084B
:1001F000591000085910000859100008591000083B
:10020000591000085910000859100008591000082A
:10021000591000085910000859100008591000081A
:10022000591000085910000859100008000000007B
:1002300059100008591000085910000859100008FA
:1002400059100008591000085910000859100008EA
:1002500059100008591000085910000859100008DA
:1002600059100008591000085910000859100008CA
:1002700059100008591000085910000859100008BA
:10028000591000085910000859100008000000001B
:08029000591000085910000884
:1002A00010B5054C237833B9044B13B10448AFF3B0
:1002B00000800123237010BDF04A002400000000DC
:1002C000FC55010808B5034B1BB103490348AFF3C4
:1002D000008008BD00000000F44A0024FC5501081D
:1002E00001F0FF01102A2BDB10F0070F08D010F8E7
:1002F000013B013A8B422DD010F0070F42B3F6D1EB
:10030000F0B441EA012141EA014122F007047FF003
:1003100000070023F0E80256083C85EA010586EA5A
:10032000010685FA47F5A3FA87F586FA47F6A5FA96
:1003300087F68EB9EED1F0BC01F0FF0102F00702A2
:1003400032B110F8013B013A83EA010313B1F8D14D
:100350000020704701387047002D06BF354603382E
:10036000073815F0010F07D1013015F4807F02BF67
:10037000013015F4C03F0130F0BC0138704700BFB8
:1003800053B94AB9002908BF00281CBF4FF0FF31FC
:100390004FF0FF3000F088B9ADF1080C6DE904CEE4
:1003A00000F006F8DDF804E0DDE9022304B0704750
:1003B0002DE9F047089D8E4604468846002B4AD119
:1003C0008A42174662D9B2FA82F64EB1C6F12003CC
:1003D00001FA06F820FA03F3B74043EA0808B440EC
:1003E0004FEA174E1FFA87FCB8FBFEF1230C0EFBF9
:1003F000118843EA084301FB0CF29A4209D9FB1821
:1004000001F1FF3080F0EA809A4240F2E780023941
:100410003B449A1AA3B2B2FBFEF00EFB102243EA51
:10042000024300FB0CFC9C4509D9FB1800F1FF328C
:1004300080F0D6809C4540F2D3803B44023840EAAD
:100440000140A3EB0C0300211DB1F3400022C5E9DC
:100450000032BDE8F0878B4205D90DB1C5E9000136
:1004600000210846F5E7B3FA83F1002946D1734528
:1004700002D3824200F20581841A6EEB030201204E
:100480009046002DE5D0C5E90048E2E7002A00F0DB
:100490009080B2FA82F6002E40F0A4808A1A030CF3
:1004A0004FEA174E80B2BCB20121B2FBFEFC0EFB3C
:1004B0001C2243EA024304FB0CF29A4207D9FB18C0
:1004C0000CF1FF3802D29A4200F2E080C4469B1A37
:1004D000B3FBFEF20EFB123340EA034302FB04F4CB
:1004E0009C4207D9FB1802F1FF3002D29C4200F275
:1004F000CA8002461B1B42EA0C40A5E7C1F1200658
:100500008B4022FA06F71F430EFA01F420FA06F395
:100510002EFA06FE4FEA1749234300FA01F81FFAA4
:1005200087FCBEFBF9F01C0C09FB10EE44EA0E44FC
:1005300000FB0CFEA64502FA01F209D93C1900F1B4
:10054000FF3A80F09C80A64540F2998002383C44F6
:10055000A4EB0E041FFA83FEB4FBF9F309FB13446A
:100560004EEA044403FB0CFCA44508D93C1903F1F2
:10057000FF3E80F08280A4457FD9023B3C4443EAA1
:100580000040A4EB0C04A0FB02EC64457346E1467A
:1005900062D35FD05DB1B8EB030264EB090404FAE7
:1005A00006F622FA01F31E43CC40C5E9006400219F
:1005B0004FE7B1FBF2FC010C41EA0E4180B240EA88
:1005C00001423B4638463C46B846BE462026B1FB73
:1005D000F7F1A2EB080241EA0C4166E7014618E791
:1005E00010462CE7C6F120022EFA02F3B740B140C4
:1005F00020FA02F24FEA174E0A43B3FBFEF8BCB2F0
:100600000EFB1833110C41EA034108FB04F9B0401A
:1006100089454FEA104380B23ED9791808F1FF3C72
:1006200001D289451FD8A1EB0901B1FBFEF909FBF5
:1006300004F80EFB191192B242EA0142424529D256
:10064000BA1809F1FF31C4D24245C2D2A9F1020160
:100650003A44BEE7F0459DD2BEEB02036CEB070CBB
:100660000138E14696E7A7EB09094944A8F1020CD5
:10067000B1FBFEF909FB04F8DBE773467FE7504660
:1006800066E70846FDE63B44023A33E7ACF1020C6C
:100690003B441CE749469CE7A1EB0901C446B1FB7A
:1006A000FEF909FB04F8C4E7704700BF80B400AF4F
:1006B000494BD3F88830484A43F47003C2F8883075
:1006C000454B1B69444A43F010031361434B1B68BD
:1006D00003F00F03062B07D8404B1B6823F00F03D2
:1006E0003E4A43F0070313603D4B1B683C4A43F00E
:1006F000010313603A4B00221A61394B1A683849DA
:10070000384B13400B60354B1B6803F00803002B7C
:1007100007D0324B1B6823F00F03304A43F0070326
:1007200013602F4B00229A612D4B0022DA612C4B73
:1007300000221A622A4B2C4A9A62294B2B4ADA620F
:10074000274B2B4A1A63264B00225A63244B284A14
:100750009A63234B0022DA63214B254A1A64204B0B
:1007600000225A641E4B1B681D4A23F48023136029
:100770001B4B00221A661F4B5B6A1E4A43F48043E0
:1007800053621D4B1A681D4B1340B3F1005F02D238
:100790001B4B01221A60124BD3F8D43003F4805360
:1007A000002B13D10E4BD3F8D4300D4A43F48053B1
:1007B000C2F8D430134B43F2D2021A60084BD3F87C
:1007C000D430074A23F48053C2F8D43000BFBD466A
:1007D0005DF8047B704700BF00ED00E00020005290
:1007E000004402587FEDF6EA000202020000FF0119
:1007F00080020101C00000580010005C0000FFFFF3
:10080000088100510040005280B400AF094BDB6802
:10081000084A23F00203D36000BF064B5B6803F471
:100820000053002BF9D000BF00BFBD465DF8047B2C
:10083000704700BF0048025880B485B000AFF86030
:10084000B9607A60FB68074A1A60BB68064A1A609A
:100850007B6880221A6000BF1437BD465DF8047BB8
:10086000704700BF0C4B0024AC4B0024B0B58CB0DB
:1008700000AF00F0D3F9714B5B6903F40033002B38
:100880001BD1BFF34F8F00BFBFF36F8F00BF6B4B08
:100890000022C3F85022BFF34F8F00BFBFF36F8F0A
:1008A00000BF664B5B69654A43F400335361BFF395
:1008B0004F8F00BFBFF36F8F00E000BF5F4B5B69DE
:1008C00003F48033002B38D15C4B0022C3F8842022
:1008D000BFF34F8F00BF594BD3F88030BB62BB6A68
:1008E0005B0BC3F30E037B62BB6ADB08C3F3090334
:1008F0003B627B6A5A0143F6E07313403A6A9207FF
:100900004E491343C1F860323B6A5A1E3A62002BCB
:10091000EFD17B6A5A1E7A62002BE5D1BFF34F8F6D
:1009200000BF464B5B69454A43F480335361BFF3D4
:100930004F8F00BFBFF36F8F00E000BF4FF6FF7314
:10094000FB6200BF3E4B1B6803F40043002B04D046
:10095000FB6A5A1EFA62002BF4DCFB6A002B01DAF8
:1009600000F0C0F900F064FE00F072F8344BD3F8E8
:10097000E030334A43F00073C2F8E030304BD3F834
:10098000E03003F000733B603B68002002F0EEFFB4
:100990000021002003F004F84FF6FF73FB6200BF54
:1009A000274B1B6803F40043002B04D1FB6A5A1E3B
:1009B000FA62002BF4DCFB6A002B01DA00F092F9FA
:1009C00000F0C2F81F4B3C1D1D460FCD0FC495E82B
:1009D000070084E807003B1D0021184606F016FDBD
:1009E0000346194A1360002000F03EFC012000F08D
:1009F0003BFC022000F038FC0121002000F0AAFCA2
:100A0000124B4FF4E1321A60104B00225A600F4B28
:100A100000221A810D4B00225A810C4B00229A8130
:100A20000A49002000F026FD0346002B01D000F00B
:100A300059F906F0D4FC00BFFDE700BF00ED00E06F
:100A40000044025820560108BC4D0024AC4D00243F
:100A500080B59CB000AF07F124034C22002118465A
:100A600013F0CBFE3B1D20220021184613F0C5FEDB
:100A7000042002F0A9FF00233B60314BDB6A304ABF
:100A800023F00103D3622E4BDB6A03F001033B60CA
:100A90002C4B9B692B4A43F440439361294B9B6940
:100AA00003F440433B603B6800BF264B9B6903F463
:100AB0000053B3F5005FF8D102237B6201233B634F
:100AC00040237B630223BB640023FB6410233B654C
:100AD000C8237B650223BB650523FB6502233B66B8
:100AE00008237B660023BB660023FB6607F1240313
:100AF000184602F0C3FF0346002B01D000F0F2F8C5
:100B00003F237B600323BB600023FB6008233B6122
:100B100040237B614023BB614FF48063FB61402332
:100B20003B623B1D0221184603F002FC0346002BEA
:100B300001D000F0D7F800BF7037BD4680BD00BFC0
:100B4000000400580048025880B58AB000AF07F191
:100B5000140300221A605A609A60DA601A61284B06
:100B6000D3F8E030264A43F00403C2F8E030244BC7
:100B7000D3F8E03003F004033B613B69204BD3F82A
:100B8000E0301F4A43F00103C2F8E0301C4BD3F8B9
:100B9000E03003F00103FB60FB68194BD3F8E03051
:100BA000174A43F00203C2F8E030154BD3F8E030A7
:100BB00003F00203BB60BB68114BD3F8E030104A6E
:100BC00043F04003C2F8E0300D4BD3F8E03003F0BF
:100BD00040037B607B684FF4C8537B610223BB6199
:100BE0000023FB6100233B620A237B6207F11403AD
:100BF0001946044802F0F0FC00BF2837BD4680BD0E
:100C0000004402580000025880B582B000AF7860FE
:100C100005F052FD012006F045FCFBE780B584B0ED
:100C200000AF3B4600221A605A609A60DA6000F01A
:100C30005BFE01233B7000237B7000237B601F233E
:100C40003B7287237B720023BB720023FB7201235C
:100C50003B7301237B730023BB730023FB733B4671
:100C6000184600F079FE01237B70134B7B60102344
:100C70003B7200237B720123BB720323FB720023B0
:100C80007B733B46184600F067FE02237B700B4BDC
:100C90007B6008233B720023BB7201237B7301231B
:100CA000FB733B46184600F057FE042000F034FE6C
:100CB00000BF1037BD4680BD000002300000043088
:100CC00080B582B000AF78607B681B68044A9342AD
:100CD00001D100F0E9FC00BF0837BD4680BD00BF70
:100CE0000010004080B400AF72B600BF00BFFDE747
:100CF00080B582B000AF0C4BD3F8F4300A4A43F011
:100D00000203C2F8F430084BD3F8F43003F00203C6
:100D10007B607B6800220F216FF0010000F0BCFDBA
:100D200000BF0837BD4680BD0044025880B590B072
:100D300000AF78607B680F2B27D8002279683620B7
:100D400000F0AAFD362000F0C1FD294A7B6813603F
:100D5000284BD3F8E830274A43F01003C2F8E830B4
:100D6000244BD3F8E83003F01003FB60FB6807F175
:100D7000100207F114031146184603F065FEBB6A22
:100D8000BB63BB6B002B06D101E001232BE003F01A
:100D90002FFEF86304E003F02BFE03465B00FB63C9
:100DA000FB6B154AA2FB03239B0C013B7B63134B9C
:100DB000134A1A60114B40F2E732DA600F4A7B6B3C
:100DC00053600E4B00221A610C4B00229A600B48B4
:100DD00004F03AF90346002B04D1084804F096F9D0
:100DE000034600E0012318464037BD4680BD00BFE2
:100DF000240000240044025883DE1B43C04D00241D
:100E00000010004080B400AF00BFFDE780B400AF29
:100E100000BFFDE780B400AF00BFFDE780B400AFC6
:100E200000BFFDE780B400AF00BFFDE780B400AFB6
:100E300000BFBD465DF8047B704780B500AF002061
:100E400000F0FAFA00BF80BD80B500AF024804F0A0
:100E5000D5F900BF80BD00BFC04D002480B500AFF4
:100E6000024801F09FF900BF80BD00BF104F002471
:100E700080B400AF01231846BD465DF8047B70477F
:100E800080B483B000AF78603960054B16221A60D9
:100E90004FF0FF3318460C37BD465DF8047B7047B2
:100EA000DCFA002480B582B000AF78604FF0FF31EB
:100EB0007868FFF7E5FF00BFFDE780B586B000AFBB
:100EC000F860B9607A6000237B610AE0AFF30080CC
:100ED0000146BB685A1CBA60CAB21A707B690133FA
:100EE0007B617A697B689A42F0DB7B681846183729
:100EF000BD4680BD80B586B000AFF860B9607A604D
:100F000000237B6109E0BB685A1CBA601B78184655
:100F100000F012FB7B6901337B617A697B689A423E
:100F2000F1DB7B6818461837BD4680BD80B483B0BE
:100F300000AF78604FF0FF3318460C37BD465DF8C0
:100F4000047B704780B483B000AF786039603B6841
:100F50004FF400525A60002318460C37BD465DF826
:100F6000047B704780B483B000AF786001231846DB
:100F70000C37BD465DF8047B704780B485B000AF88
:100F8000F860B9607A60002318461437BD465DF8F2
:100F9000047B704780B487B000AF7860144A154B6B
:100FA000D31A7B617B693B61134B1B68002B02D119
:100FB000114B124A1A60104B1A687B6813443A6945
:100FC0009A4205D20E4B0C221A604FF0FF3309E013
:100FD000094B1B68FB60084B1A687B681344064A80
:100FE0001360FB6818461C37BD465DF8047B7047EC
:100FF00000000824000400000C4E0024F0FA002435
:10100000DCFA0024DFF838D0FFF7FEFBFFF74EFBD9
:101010000C480D490D4A002302E0D458C450043353
:10102000C4188C42F9D30A4A0A4C002301E0136029
:101030000432A242FBD313F08DFCFFF717FC70477C
:101040000000082400000024AC0000245886010899
:10105000F04A0024ECFA0024FEE780B483B000AF2D
:10106000786039607B68002B0BD03B68DB68002B15
:1010700007D03B689B68002B03D03B681B69002BA3
:1010800002D14FF0FF3314E03B681A687B689A6026
:101090003B685A687B68DA603B68DA687B685A614B
:1010A0003B689A687B681A613B681A697B689A6139
:1010B000002318460C37BD465DF8047B704780B5A9
:1010C00086B000AF78600023FB6000237B610023C3
:1010D0003B617B685B68002B39D17B689B68002B88
:1010E00002D07B689B6898477B6820221A600023A7
:1010F0007B611CE07B685B6907F10C021221786957
:1011000098470346002B03DA6FF004033B610BE0C2
:10111000FB6803F01F037A699A4205D17B687A69FC
:101120001A6000233B6105E07B6901337B617B69C9
:101130001F2BDFD97B681B681F2B02D96FF00203BE
:101140003B613B69002B02D17B6801225A603B69FD
:1011500018461837BD4680BD80B584B000AF7860B2
:101160000023FB607B685B697A68106807F10C02FA
:10117000012198470346002B02DA6FF004036EE06A
:101180007B685B697A68106807F10C020121984757
:101190000346002B02DA6FF0040360E0FB6803F003
:1011A0000403002B01D1012359E07B685B697A6855
:1011B000106807F10C02002198470346002B02DA61
:1011C0006FF004034BE0FB6803F48053002B1BD14A
:1011D000FB6803F40053002B06D0FB6803F4807314
:1011E000002B01D002233AE0FB6803F40053002BEC
:1011F00001D0032333E0FB6803F48073002B01D09C
:1012000004232CE005232AE07B685B697A68106878
:1012100007F10C021F2198470346002B02DA6FF0FA
:1012200004031CE0FB6803F48053002B01D1062368
:1012300015E0FB6803F01C03182B01D102230EE01C
:10124000FB6803F01C03082B01D1032307E0FB68B4
:1012500003F01C03142B01D1042300E005231846DE
:101260001037BD4680BD000080B58CB000AF03468E
:10127000FB710023FB62FB79002B09D0FB79012B6A
:1012800006D0FB79022B03D06FF00103FB6255E01F
:10129000FB79002B0FD12C4BD3F8E0302A4A43F0D6
:1012A0000203C2F8E030284BD3F8E03003F0020329
:1012B0007B617B6921E0FB79012B0FD1224BD3F8B5
:1012C000E030214A43F01003C2F8E0301E4BD3F85F
:1012D000E03003F010033B613B690EE01A4BD3F89A
:1012E000E030194A43F00203C2F8E030164BD3F85D
:1012F000E03003F00203FB60FB68FB79134A32F82D
:101300001330BB610123FB6100233B6203237B623B
:10131000FB790F4A52F8233007F11802114618469C
:1013200002F05AF9FB790A4A52F82300FB79074A7E
:1013300032F813300022194602F0FEFAFB6A184612
:101340003037BD4680BD00BF004402580C84010800
:101350000C00002480B588B000AF03460A46FB713C
:101360001346BB712E4BD3F8E0302D4A43F00403F3
:10137000C2F8E0302A4BD3F8E03003F00403BB603E
:10138000BB684FF40053FB6002237B610223BB6107
:10139000BB79002B0CD100233B61FB79214A52F829
:1013A000233007F10C021146184602F015F931E01E
:1013B0004FF488133B61FB791A4A52F8233007F146
:1013C0000C021146184602F007F9FB79DB00164AB9
:1013D0001A44FB79154951F823301946104602F09A
:1013E000AAF8FB79DB00104A9818FB79104A52F8EA
:1013F00023301A46002102F07FF82820FB790D4A9D
:1014000052F823300022194600F046FA28231846E5
:1014100000F05CFA002318462037BD4680BD00BFAF
:101420000044025818000024104E002414840108BF
:101430001C0000242000002480B582B000AF0346C9
:10144000FB71FB79DB00044A1344184602F088F86C
:1014500000BF0837BD4680BD104E002480B483B065
:1014600000AF0346FB7100BF0C37BD465DF8047B3F
:101470007047000080B584B000AF03463960FB714F
:101480000023FB60FB79002B03D06FF00103FB60AE
:1014900018E0FB79942202FB03F30D4A134418462B
:1014A00000F06EF8FB79942202FB03F3084A134420
:1014B0003968184600F00EF80346002B02D06FF092
:1014C0000303FB60FB6818461037BD4680BD00BFB4
:1014D000184E002480B582B000AF78603960154B9B
:1014E0001A687B681A603B681A687B685A607B6878
:1014F0000C225A613B685B891A467B681A613B681B
:101500005A687B689A603B681B891A467B68DA6078
:101510003B689B891A467B689A617B684FF400425E
:10152000DA61786804F058F8034618460837BD4673
:1015300080BD00BF0800002480B582B000AF786095
:10154000094B1B781A46942302FB03F3074A9818A9
:10155000391D4FF47A73012204F098F87B6818461D
:101560000837BD4680BD00BFAC4E0024184E002495
:1015700080B500AF0020FFF771FF00BF80BD000005
:1015800080B58AB000AF7860274BD3F8E030264AA8
:1015900043F00803C2F8E030234BD3F8E03003F007
:1015A00008033B613B69204BD3F8E0301E4A43F00F
:1015B0000803C2F8E0301C4BD3F8E03003F0080316
:1015C000FB60FB68184BD3F8E830174A43F48023DC
:1015D000C2F8E830144BD3F8E83003F48023BB6042
:1015E000BB684FF480737B610223BB6102233B62C3
:1015F0000123FB6107237B6207F1140319460B48A3
:1016000001F0EAFF4FF400737B610223BB61072303
:101610007B6207F114031946044801F0DDFF00BFA7
:101620002837BD4680BD00BF00440258000C025858
:1016300080B582B000AF032000F023F903F02EF84C
:101640000246154B9B691B0A03F00F031349CB5C41
:1016500003F01F0322FA03F37B600F4B9B6903F037
:101660000F030E4AD35C03F01F037A6822FA03F3D8
:101670000B4A13600B4A7B6813600F20FFF756FB81
:101680000346002B01D0012302E0FFF731FB0023CA
:1016900018460837BD4680BD00440258FC83010847
:1016A000040000240000002480B400AF064B1B7827
:1016B0001A46064B1B681344044A136000BFBD461C
:1016C0005DF8047B704700BF28000024B04E002462
:1016D00080B400AF034B1B681846BD465DF8047B21
:1016E000704700BFB04E002480B400AF034B1B68AE
:1016F0001B0C1846BD465DF8047B70470010005C6B
:1017000080B483B000AF7860064B5B6823F460025E
:1017100004497B6813434B6000BF0C37BD465DF83E
:10172000047B70470004005880B485B000AF786037
:101730007B6803F00703FB600B4BDB68BB60BA6898
:101740004FF6FF031340BB60FB681A02BB681A43E5
:10175000064B1343BB60044ABB68D36000BF143719
:10176000BD465DF8047B704700ED00E00000FA051F
:1017700080B400AF044BDB681B0A03F00703184674
:10178000BD465DF8047B704700ED00E080B483B097
:1017900000AF0346FB80B7F90630002B0BDBFB885C
:1017A00003F01F020749B7F906305B09012000FA70
:1017B00002F241F8232000BF0C37BD465DF8047BE0
:1017C000704700BF00E100E080B483B000AF034683
:1017D0003960FB80B7F90630002B0ADB3B68DAB2D0
:1017E0000C49B7F906301201D2B20B4483F800233A
:1017F0000AE03B68DAB20849FB8803F00F03043BB8
:101800001201D2B20B441A7600BF0C37BD465DF808
:10181000047B704700E100E000ED00E080B489B097
:1018200000AFF860B9607A60FB6803F00703FB6102
:10183000FB69C3F10703042B28BF0423BB61FB69C9
:101840000433062B02D9FB69033B00E000237B61D4
:101850004FF0FF32BB6902FA03F3DA43BB681A4068
:101860007B699A404FF0FF317B6901FA03F3D9435A
:101870007B680B40134318462437BD465DF8047B54
:10188000704780B582B000AF78607868FFF74CFF92
:1018900000BF0837BD4680BD80B586B000AF0346A7
:1018A000B9607A60FB81FFF763FF78617A68B96895
:1018B0007869FFF7B3FF0246B7F90E3011461846B4
:1018C000FFF782FF00BF1837BD4680BD80B582B0EC
:1018D00000AF0346FB80B7F906301846FFF756FF06
:1018E00000BF0837BD4680BD80B400AFBFF35F8F37
:1018F00000BF074B5B6A064A23F480335362054BF3
:1019000000225A6000BFBD465DF8047B704700BFEF
:1019100000ED00E090ED00E080B483B000AF7860AF
:101920000B4A7B6843F0010353600A4B5B6A094A28
:1019300043F480335362BFF34F8F00BFBFF36F8F09
:1019400000BF00BF0C37BD465DF8047B704700BF89
:1019500090ED00E000ED00E080B483B000AF78606F
:101960007B685A781B4B9A601A4B1B69194A23F003
:1019700001031361174A7B685B68D3607B681B7B3C
:101980001A077B68DB7A1B061A437B689B7ADB04A9
:101990001A437B685B7B9B041A437B689B7B5B04DD
:1019A0001A437B68DB7B1B041A437B685B7A1B0250
:1019B0001A437B681B7A5B0013437A6812781146DE
:1019C000044A0B43136100BF0C37BD465DF8047B2E
:1019D000704700BF90ED00E080B400AF064B1B687D
:1019E00003F0F003702B01D1032300E0012318461C
:1019F000BD465DF8047B704700ED00E080B584B023
:101A000000AF78607B68002B01D10123E3E07B68A5
:101A1000D3F88430002B06D17B682022C3F88420C1
:101A2000786805F05DFA6E4BD3F8F4306C4A43F0F9
:101A30000203C2F8F4306A4BD3F8F43003F0020327
:101A4000BB60BB687B681B7A002B03D10020FFF7CB
:101A500057FE03E04FF40000FFF752FE614B5B6856
:101A60007B681B6803F580531B687A68126843F033
:101A7000010302F580521360FFF72AFEF86011E0BF
:101A8000FFF726FE0246FB68D31AB3F5FA7F09D9A1
:101A90007B680422C3F888207B68E022C3F8842096
:101AA000012398E07B681B6803F580531B6803F0F3
:101AB0000103002BE4D1786800F032FF02F068FFE8
:101AC0000346494AA2FB03239A0C7B681B68013A30
:101AD000C3F8DC20786801F02FF97B681B6803F5F8
:101AE0008053D3F8003123F4E0137A68126843F48A
:101AF000002302F58052C2F800317B685B6903F075
:101B00000303002B09D07B680122C3F888207B687F
:101B1000E022C3F8842001235DE07B681B6803F5A5
:101B20008053D3F80821314B13407A685269510031
:101B30007A6812680B4302F58052C2F8083178685F
:101B400001F097F9786801F0DDF97B685B6805338F
:101B50001B781A027B685B6804331B7819467B6824
:101B60001B680A43C3F800237B685B6803331B7858
:101B70001A067B685B6802331B781B041A437B6878
:101B80005B6801331B781B021A437B685B681B7818
:101B900019467B681B680A43C3F804237B681B68EB
:101BA000D3F80C177B681A68114B0B43C2F80C373B
:101BB0007B681B68D3F810177B681A680D4B0B43C2
:101BC000C2F810377B680022C3F888207B68102297
:101BD000C3F88420002318461037BD4680BD00BFDF
:101BE000004402580004005883DE1B430180FFFFBD
:101BF0006000020C00C0200C80B582B000AF78609D
:101C00007B68D3F88430102B65D17B682022C3F821
:101C100084207B6801229A657B680422DA667868F2
:101C200000F0E4F97B681B6803F58053D3F80431B6
:101C30007A68126843F0010302F58052C2F8043159
:101C40007B681B6803F58053D3F808317A68126803
:101C500043F0010302F58052C2F808317B681B682B
:101C600003F58053D3F860317A68126843F48173C6
:101C700002F58052C2F860317B681B68D3F8002DF2
:101C80007B681B6842F00102C3F8002D7B681B686B
:101C90001A687B681B6842F002021A607B681B6846
:101CA0001A687B681B6842F001021A607B681B6837
:101CB00003F58053D3F834117B681A684DF2C103E1
:101CC0000B4302F58052C2F834317B684022C3F8DE
:101CD0008420002300E0012318460837BD4680BD5C
:101CE00080B485B000AF78607B68D3F88430402B37
:101CF00065D17B682022C3F884207B681B6803F5CC
:101D00008053D3F834117B681A68304B0B4002F5CE
:101D10008052C2F834317B681B6803F58053D3F8D6
:101D200004317A68126823F0010302F58052C2F888
:101D300004317B681B6803F58053D3F808317A6857
:101D4000126823F0010302F58052C2F808317B6863
:101D50001B681A687B681B6822F001021A607B68A6
:101D60001B68D3F8002D7B681B6842F00102C3F8A2
:101D7000002D7B681B681A687B681B6822F00202D2
:101D80001A600023FB600EE07B68FA68123253F899
:101D90002230BB60BB68DB6823F08042BB68DA603E
:101DA000FB680133FB60FB68032BEDD97B680022E5
:101DB0009A657B681022C3F88420002300E0012389
:101DC00018461437BD465DF8047B70473E2FFFFF71
:101DD00080B582B000AF786039603B68002B09D1D4
:101DE0007B68D3F8883043F001027B68C3F8882011
:101DF00001233AE07B68D3F88430402B34D13B6830
:101E00005A6B7B68DA6301223968786801F0D8F888
:101E10000346002B09D07B68D3F8883043F00202D8
:101E20007B68C3F8882001231FE0BFF34F8F00BFFA
:101E30007B689B6A5A1C7B689A627B689B6A032B4F
:101E400004D97B689B6A1A1F7B689A627B68996ACF
:101E50007B681A687B68063153F8213002F580529E
:101E6000C2F82031002300E0012318460837BD46A0
:101E700080BD80B588B000AF7860396000237B6199
:101E80000023FB743B68002B09D17B68D3F88830B2
:101E900043F001027B68C3F888200123A2E07B683D
:101EA000D3F88430402B01D001239BE07B68DB6DAD
:101EB000FB617B68FA69123253F82230BB617B68A0
:101EC000DB6EC3F10403FB6064E0BB69DB6803F015
:101ED0008043002B07D0BB695A687B689A67BB694F
:101EE0001A687B685A67BB69DB6803F00053002BF4
:101EF00003D17B68DB6F002B3AD0BB69DB6803F052
:101F00000053002B05D07B6800221A667B680022F4
:101F10005A66BB69DB68C3F30E027B685B6ED31A3B
:101F2000BB60BB69DB6803F08053002B05D0BB6945
:101F3000DA687B681A670123FB747B6803F17C0015
:101F40007B6803F18001BB691B691A46BB689BB2C1
:101F500005F0A8F97B681B6E5A1C7B681A667B68C3
:101F60005A6EBB681A447B685A66BB6900221A61C4
:101F7000FB690133FB61FB69032B02D9FB69043B5D
:101F8000FB617B68FA69123253F82230BB617B69CE
:101F900001337B61BB69DB68002B06DB7A69FB6878
:101FA0009A4202D2FB7C002B8FD07B68DA6E7B6971
:101FB0001A447B68DA667B68DB6E002B02D0786897
:101FC00000F014F87B68FA69DA65FB7C012B08D114
:101FD0007B68DA6F3B681A607B680022DA6700234F
:101FE00000E0012318462037BD4680BD80B588B08B
:101FF00000AF78600023BB600123FB747B689B6E9D
:10200000FB617B68FA69123253F822307B617B688E
:10201000DB6EBB6138E07B691B69002B12D107F1D5
:102020000803184605F00EF9BB68002B02D1002307
:10203000FB7407E0BB681A467B691A61BB681A46E5
:102040007B691A60FB7C002B1ED07B689B6D002B8C
:1020500004D07B694FF04142DA6003E07B694FF0C6
:102060000142DA60FB690133FB61FB69032B02D992
:10207000FB69043BFB617B68FA69123253F822303A
:102080007B61BB69013BBB61BB69002B02D0FB7C60
:10209000002BC0D17B68DB6EBA699A421BD0FB690A
:1020A000033303F00303FB60BFF35F8F00BF7B6864
:1020B0001969FA6813465B001344DB00CA187B6891
:1020C0001B6803F58053C3F828217B68FA699A6678
:1020D0007B68BA69DA6600BF2037BD4680BD80B52F
:1020E00086B000AF78607B681833BB60BB689B6AC2
:1020F0007B61BB68DB6A3B610123FB7347E0012323
:10210000BB737B69013B7B61BA683B6904339B000D
:1021100013445B68002B0AD13B6901333B613B6987
:10212000032B02D93B69043B3B610023BB73BB7BA0
:10213000002B2CD07B68D9683A6913465B001344A6
:10214000DB000B44DB68002B1FDBBA683B69043300
:102150009B0013445B68184605F00CF9BA683B69AC
:1021600004339B00134400225A603B6901333B61F6
:102170003B69032B02D93B69043B3B61BB687A692D
:102180009A62BB683A69DA6201E00023FB737B69FB
:10219000002B02D0FB7B002BB1D10023184618374F
:1021A000BD4680BD80B588B000AF78607B681B6895
:1021B000D3F8B030FB617B681B6803F58053D3F81C
:1021C0006031BB617B681B6803F58053D3F8343101
:1021D0007B61774B9B6A3B61764B9B6AFB60BB697B
:1021E00003F04003002B10D07B6903F04003002B69
:1021F0000BD07B681B6803F580531A4648F24003F6
:10220000C2F86031786804F099FBBB6903F0010300
:10221000002B10D07B6903F00103002B0BD07B68EF
:102220001B6803F580531A4648F20103C2F8603177
:10223000786804F093FBBB6903F48043002B47D01C
:102240007B6903F48043002B42D07B68D3F888304D
:1022500043F008027B68C3F88820BB6903F480530D
:10226000002B1ED07B681B6803F58053D3F86021D8
:1022700041F2021313407A68C2F88C307B681B6805
:1022800003F58053D3F834317A68126823F440435D
:1022900002F58052C2F834317B68E022C3F8842012
:1022A00013E07B681B6803F58053D3F8603103F4B7
:1022B000CD427B68C3F88C207B681B6803F5805394
:1022C0001A464FF4CD43C2F86031786804F056FBEB
:1022D000FB6903F48043002B04D1FB6903F4005332
:1022E000002B19D07B68D3F8883043F010027B684C
:1022F000C3F888207B681B68D3F8B8207B68C3F8D4
:1023000090207B68E022C3F88420786804F036FBD4
:102310007B680022C3F89020FB6903F01003002BB8
:102320000FD07B681B68D3F8C03003F060027B6875
:10233000C3F89420786800F03FF87B680022C3F867
:102340009420FB6903F02003002B0FD07B681B68EF
:10235000D3F8D03003F00F027B68C3F89820786878
:1023600000F034F87B680022C3F89820FFF734FBB4
:102370000346032B0CD13B6903F48003002B13D0DD
:102380000B4B4FF480029A62786800F029F80BE05A
:10239000FB6803F48003002B06D0064B4FF4800249
:1023A0009A62786800F01CF800BF2037BD4680BDF7
:1023B00080000058C000005880B483B000AF78603F
:1023C00000BF0C37BD465DF8047B704780B483B016
:1023D00000AF786000BF0C37BD465DF8047B7047E6
:1023E00080B483B000AF786000BF0C37BD465DF8A5
:1023F000047B704780B586B000AFF860B9607A6042
:102400003B60FB681B68D3F8003203F00103002B2C
:1024100001D001233EE0FB681B68D3F800327B61EA
:102420007B6923F07872BB685B0513437B617B6932
:1024300023F4F8127B681B0413437B617B6943F030
:102440000C037B617B6943F001037B61FB681B68C4
:102450007A69C3F80022FFF73BF9386109E0FFF71A
:1024600037F902463B69D31AB3F57A7F01D90123C4
:1024700010E0FB681B68D3F8003203F00103002B67
:10248000EDD1FB681B68D3F804329BB21A463B6857
:102490001A60002318461837BD4680BD80B586B047
:1024A00000AFF860B9607A603B60FB681B68D3F8E6
:1024B000003203F00103002B01D001233CE0FB6854
:1024C0001B68D3F800327B617B6923F07872BB68AC
:1024D0005B0513437B617B6923F4F8127B681B0463
:1024E00013437B617B6923F00C0343F004037B619E
:1024F0007B6943F001037B613B689AB2104BC3F8E0
:1025000004220F4A7B69C2F80032FFF7E1F8386114
:1025100009E0FFF7DDF802463B69D31AB3F57A7F8D
:1025200001D9012308E0FB681B68D3F8003203F0EF
:102530000103002BEDD1002318461837BD4680BD9E
:102540000080024080B483B000AF786039603B689F
:10255000002B01D10123C3E17B681B681B6803F0DA
:102560000C023B68DA627B681B681B6803F010038F
:10257000002B14BF01230023DBB21A463B6883F80B
:1025800028207B681B681B6803F060023B685A6266
:102590007B681B681B6803F48073002B0CBF01234E
:1025A0000023DBB21A463B6883F820207B681B6857
:1025B0001B6803F40073002B14BF01230023DBB25C
:1025C0001A463B68DA777B681B681B6803F48063F4
:1025D000002B0CBF01230023DBB21A463B689A771D
:1025E0007B681B681B6803F40063002B14BF012386
:1025F0000023DBB21A463B685A777B681B681B686E
:1026000003F48053002B14BF01230023DBB21A46CE
:102610003B681A777B681B681B6803F400523B68B1
:102620009A617B681B681B6803F480423B685A61AF
:102630007B681B681B6803F48033002B14BF0123E5
:102640000023DBB21A463B689A747B681B681B68E0
:1026500003F40033002B0CBF01230023DBB21A4626
:102660003B685A747B681B681B6803F40023002BCB
:102670000CBF01230023DBB21A463B681A747B6847
:102680001B681B6803F48013002B14BF0123002375
:10269000DBB21A463B68DA737B681B681B6803F47D
:1026A0000013002B14BF01230023DBB21A463B6842
:1026B0009A737B681B681B6803F48003002B14BFAC
:1026C00001230023DBB21A463B685A737B681B6800
:1026D0001B6803F40003002B14BF01230023DBB2AB
:1026E0001A463B681A737B681B681B6803F0E0623C
:1026F0003B689A607B681B681B6803F00063002BD3
:1027000014BF01230023DBB21A463B681A717B68B1
:102710001B681B6803F0E0423B681A607B681B681B
:102720005B68C3F30D023B685A637B681B685B6898
:1027300003F48033002B0CBF01230023DBB21A46C5
:102740003B6883F832207B681B685B6803F40033C6
:10275000002B14BF01230023DBB21A463B6883F829
:1027600031207B681B685B6803F48023002B14BF57
:1027700001230023DBB21A463B6883F830207B68D4
:102780001B685B6803F08073002B14BF01230023D8
:10279000DBB21A463B6883F838207B681B685B68AD
:1027A0005B0E03F01F023B68DA637B681B68DB6823
:1027B00003F48073002B14BF01230023DBB21A46FD
:1027C0003B6883F840207B681B68DB6803F00F02DE
:1027D0003B685A647B681B681B6F03F00203002B85
:1027E00014BF01230023DBB21A463B6883F8542050
:1027F0007B681B681B6F03F08003002B0CBF012359
:102800000023DBB21A463B6883F84C207B681B68C8
:102810001B6F03F070023B681A657B681B681B6FB7
:102820001B0C9AB23B689A647B681B68D3F89030A3
:1028300003F00103002B14BF01230023DBB21A466F
:102840003B6883F856207B681B68D3F8903003F010
:102850000203002B14BF01230023DBB21A463B689E
:1028600083F855207B681B68D3F8003D03F07202A3
:102870003B689A657B681B68D3F8303D03F0230200
:102880003B68DA657B681B68D3F8303D03F00803CA
:10289000002B14BF01230023DBB21A463B6883F8E8
:1028A00062207B681B68D3F8303D03F01003002BD7
:1028B00014BF01230023DBB21A463B6883F8612072
:1028C0007B681B68D3F8303D03F04003002B0CBF3E
:1028D00001230023DBB21A463B6883F86020002303
:1028E00018460C37BD465DF8047B704780B582B052
:1028F00000AF786039603B68002B01D101230BE009
:102900007B68D3F88430102B05D13968786800F0E3
:1029100071F8002300E0012318460837BD4680BD4A
:1029200080B584B000AF78607B681B68D3F8003254
:10293000FB60FB6823F47063FB6002F029F8B86069
:10294000BB681A4A934204D8FB6843F40073FB60E7
:1029500022E0BB68164A934204D2FB6843F44073FA
:10296000FB6019E0BB68134A934215D9BB68124A51
:10297000934204D8FB6843F48073FB600CE0BB68AF
:102980000E4A934204D8FB6843F48063FB6003E083
:10299000FB6843F4A063FB607B681B68FA68C3F8BC
:1029A000002200BF1037BD4680BD00BFBF0E16021B
:1029B00000879303FFE0F5057FD1F0087FB2E60EB4
:1029C00080B483B000AF78607B68D3F88830184655
:1029D0000C37BD465DF8047B704780B483B000AF10
:1029E00078607B68D3F88C3018460C37BD465DF8AC
:1029F000047B704780B485B000AF786039603B6875
:102A00009A683B681B681A433B681B79DB061A43CC
:102A10003B681B7BDB051A433B685B7B9B051A43CA
:102A20003B689B7B5B051A433B68DB7B1B051343C1
:102A30003A68127C002A02D14FF4002200E0002202
:102A400013433A68527C002A02D14FF4003200E06E
:102A500000221A433B689B7C1B041A433B685B695A
:102A60001A433B689B691A433B681B7F1B031A434D
:102A70003B685B7FDB0213433A68927F002A02D1F6
:102A80004FF4806200E000221A433B68DB7F5B0268
:102A900013433A6892F82020002A02D14FF4807242
:102AA00000E000221A433B685B6A1A433B6893F8D4
:102AB00028301B011A433B68DB6A1343FB607B68C9
:102AC0001B681A68564B13407A681268F9680B4302
:102AD00013603B68DB6B5A063B6893F838301B0683
:102AE0001A433B6893F830309B041A433B6893F8D1
:102AF00031305B0413433A6892F83220002A02D145
:102B00004FF4803200E000221A433B685B6B1343B2
:102B1000FB607B681B685A68424B13407A681268F6
:102B2000F9680B4353603B6893F840301A023B68E6
:102B30005B6C1343FB607B681B68DA683A4B13409D
:102B40007A681268F9680B43D3603B6893F8543095
:102B50005A003B681B6D13433A6892F84C20002AD8
:102B600001D1802200E000221A433B689B6C1B04C9
:102B70001343FB607B681B681A6F4FF60D7313409D
:102B80007A681268F9680B4313673B6893F856300C
:102B90001A463B6893F855305B001343FB607B6833
:102BA0001B68D3F8903023F003017B681B68FA6838
:102BB0000A43C3F890207B681B68D3F8003D23F0DC
:102BC00072013B689A6D7B681B680A43C3F8002D4D
:102BD0003B68DB6D3A6892F86020002A01D1402200
:102BE00000E000221A433B6893F861301B011A434E
:102BF0003B6893F86230DB001343FB607B681B6823
:102C0000D3F8303D23F07B017B681B68FA680A43E8
:102C1000C3F8302D00BF1437BD465DF8047B704704
:102C2000838004000080F8C0F0FEFFFF80B485B010
:102C300000AF786039607B681B6803F580531A68C1
:102C4000384B13403A6811687A6812680B4302F5F2
:102C5000805213603B681B791A033B689B681A43D8
:102C60003B681B7BDB031343FB607B681B6803F53E
:102C700080535A682C4B13407A681268F9680B43EA
:102C800002F5805253603B685B7B1A043B681B6A09
:102C90001343FB607B681B6803F58053D3F8002166
:102CA000224B13407A681268F9680B4302F5805290
:102CB000C2F800313B681A693B681B7D1B011A434F
:102CC0003B685B7F1B031343FB607B681B6803F55A
:102CD0008053D3F80421164B13407A681268F968C0
:102CE0000B4302F58052C2F804313B681B7FDA07C0
:102CF0003B689B691343FB607B681B6803F580534B
:102D0000D3F808210B4B13407A681268F9680B431B
:102D100002F58052C2F8083100BF1437BD465DF895
:102D2000047B7047FD87FFFFFE2FFFFF00C0FEFF03
:102D3000EFEFC0FFFFFFC07F80B5A4B000AF7860A9
:102D4000012387F83B3000233B65002387F8493097
:102D5000002387F84B30012387F83030012387F8B0
:102D60005E30012387F83A30002387F8543001237E
:102D700087F88C304FF400537B64002387F864306D
:102D80000023BB66002387F88D30002387F88E3040
:102D90004FF4C3633B66002387F8383000237B631E
:102DA000012387F83D30002387F83E30002387F861
:102DB00048300023FB6700237B670023BB650023AB
:102DC00087F86C30002387F88230012387F84A3077
:102DD0002023C7F88830012387F84C30002387F878
:102DE0005D304FF04053FB624FF480433B6400235F
:102DF00087F839300223C7F88430002387F8803001
:102E0000002387F88130002387F85C30012387F89E
:102E10003C3000233B67012387F8783007F12C030F
:102E200019467868FFF7E6FD01233B7301233B61F8
:102E30000023BB60002387F8243000237B75002328
:102E40003B754FF400133B6200233B774FF40013B4
:102E5000BB61002387F825304FF40673BB6207F18E
:102E6000080319467868FFF7E1FE00BF9037BD46BA
:102E700080BD80B485B000AF78600023FB601DE0AA
:102E80007B68D968FA6813465B001344DB000B4487
:102E9000BB60BB6800221A60BB6800225A60BB6836
:102EA00000229A60BB680022DA60B9687B68FA6821
:102EB000063243F82210FB680133FB60FB68032BEA
:102EC000DED97B6800229A627B681B6803F5805319
:102ED0001A460323C2F82C317B68DA687B681B68CA
:102EE00003F58053C3F814217B68DA687B681B689C
:102EF00003F58053C3F8202100BF1437BD465DF8A9
:102F0000047B704780B485B000AF78600023FB601D
:102F100023E07B681969FA6813465B001344DB0001
:102F20000B44BB60BB6800221A60BB6800225A6079
:102F3000BB6800229A60BB680022DA60BB6800228E
:102F40001A61BB6800225A61B9687B68FA6812325C
:102F500043F82210FB680133FB60FB68032BD8D9D0
:102F60007B680022DA657B6800221A667B68002293
:102F70009A667B680022DA667B6800229A657B6825
:102F80001B6803F580531A460323C2F830317B686F
:102F90001A697B681B6803F58053C3F81C217B68A2
:102FA0001B6903F148027B681B6803F58053C3F873
:102FB000282100BF1437BD465DF8047B7047000030
:102FC00080B491B000AFF860B9607A60FB681833E4
:102FD0007B627B6A1B69FB637B6A1B693B62002324
:102FE0007B637B6AFA6B53F822303B63BB689B6858
:102FF000FB620023BB623B6BDB6803F00043B3F171
:10300000004F07D07A6AFB6B04339B0013445B6864
:10301000002B01D0022366E2BB681B6803F00403A7
:10302000002B44D03B6BDA68754B1340BA68526A88
:103030001A433B6BDA603B6BDB6843F480323B6BDB
:10304000DA60FB681B681A6EFB681B6842F480122A
:103050001A66BB681B6803F00803002B27D03B6B84
:103060009B689AB2BB68DB6A1B041A433B6B9A608D
:103070003B6BDB6843F400323B6BDA603B6BDB6835
:1030800023F44022BB681B6B1A433B6BDA60FB687E
:103090001B685A6EFB681B6842F480125A66FB6814
:1030A0001B681A6DFB681B6842F080621A65BB687A
:1030B0001B6803F01003002B0ED03B6B9A68514B3A
:1030C0001340BA6892691A433B6B9A603B6BDB68AA
:1030D00043F080623B6BDA60BB681B6803F004035B
:1030E000002B05D1BB681B6803F01003002B36D002
:1030F0003B6BDB6843F080423B6BDA60BFF35F8F72
:1031000000BF3B6BDB6843F000423B6BDA60FB6B5C
:103110000133FB63FB6B032B02D9FB6B043BFB63AB
:103120007B6AFA6B53F822303B637B6B01337B6322
:103130003B6BDB6803F00043B3F1004F0FD17B6AB8
:103140003A6A53F822303B63BFF35F8F00BF3B6B9B
:10315000DB6823F000423B6BDA600223C3E17B6B48
:1031600001337B63FB6A1B681A463B6B1A603B6B3F
:103170009A68244B1340FA6A52681A433B6B9A6070
:10318000FB6A9B68002B12D0FB6A9B68FB62FB6AA0
:103190001B681A463B6B5A603B6B9A681A4B13408C
:1031A000FA6A526812041A433B6B9A6008E03B6B60
:1031B00000225A603B6B9A68134B13403A6B936042
:1031C000BB681B6803F01003002B21D03B6BDB684E
:1031D00023F4F002BB681B6ADB041A433B6BDA6022
:1031E0003B6BDA68094B1340BA68D2691A433B6BF0
:1031F000DA603B6BDB6843F480223B6BDA602EE0E5
:103200000000FFFF00C0FFFFFFFF00C00000FCFF49
:103210003B6BDA687B4B1340BA6852681A433B6BCE
:10322000DA60BB681B6803F00103002B08D03B6B1E
:10323000DB6823F44032BB685B691A433B6BDA609E
:10324000BB681B6803F02003002B08D03B6BDB68D6
:1032500023F04062BB681B691A433B6BDA60BB68B2
:103260001B6803F00403002B08D03B6B9B6823F41E
:103270004042BB689B6A1A433B6B9A603B6BDB68BE
:1032800043F000523B6BDA603B6BDB6823F080421B
:103290003B6BDA60BFF35F8F00BF3B6BDB6843F0D3
:1032A00000423B6BDA60BB681B6803F00203002B33
:1032B00000F0DA803B6BDB6823F06072BB68DB6890
:1032C0001A433B6BDA60CFE03B6BDB6823F0805244
:1032D0003B6BDA60FB6B0133FB63FB6B032B02D9A7
:1032E000FB6B043BFB637B6AFA6B53F822303B6356
:1032F0003B6BDB6823F000523B6BDA603B6BDB68B7
:1033000003F00043B3F1004F07D07A6AFB6B04333C
:103310009B0013445B68002B29D03B6AFB637B6AEC
:10332000FA6B53F822303B630023BB6319E0BFF311
:103330005F8F00BF3B6BDB6823F000423B6BDA60C2
:10334000FB6B0133FB63FB6B032B02D9FB6B043B71
:10335000FB637B6AFA6B53F822303B63BB6B013330
:10336000BB63BA6B7B6B9A42E1D30223BBE07B6BFE
:1033700001337B63FB6A9B68FB62FB6A1B681A462E
:103380003B6B1A603B6B9A681F4B1340FA6A52689A
:103390001A433B6B9A60FB6A9B68002B12D0FB6A56
:1033A0009B68FB62FB6A1B681A463B6B5A603B6B6F
:1033B0009A68164B1340FA6A526812041A433B6B20
:1033C0009A6008E03B6B00225A603B6B9A680F4B97
:1033D00013403A6B9360BB681B6803F01003002B2B
:1033E00018D03B6BDA680A4B1340BA68D2691A43AB
:1033F0003B6BDA603B6BDB6843F480223B6BDA604B
:1034000020E000BF0080FFFF00C0FFFFFFFF00C003
:103410000000FCFF3B6BDA68364B1340BA68526819
:103420001A433B6BDA60BB681B6803F00103002B97
:1034300008D03B6BDB6823F44032BB685B691A43FE
:103440003B6BDA60BB6A0133BB62BFF35F8F00BFC7
:103450003B6BDB6843F000423B6BDA603B6BDB6845
:1034600023F080423B6BDA60FB6A9B68002B7FF4A1
:103470002BAF7B68002B06D03B6B9B6843F0004270
:103480003B6B9A6005E03B6B9B6823F000423B6B13
:103490009A603B6BDB6843F080523B6BDA607B6A7F
:1034A0005A6A796AFB6B04339B000B445A607B6A4F
:1034B000FA6B1A61EFF31083BB61BB69FB610123F7
:1034C0007B617B6983F3108800BF7B6A9A6ABB6A61
:1034D00013445A1C7B6A9A62FB693B613B6983F324
:1034E000108800BF002318464437BD465DF8047BB2
:1034F000704700BF0080FFFF80B487B000AFF86066
:103500000B467A60FB720023FB75FB68002B01D130
:1035100001230AE0FB7A002B03D1FB687A685A602A
:1035200002E00123FB7500BFFB7D18461C37BD463A
:103530005DF8047B704780B483B000AF7860396079
:103540007B68002B01D1012303E07B683A681A6095
:10355000002318460C37BD465DF8047B7047000019
:1035600080B586B000AF78607B681B681B0C03F0E9
:1035700003033B617B681B6803F01F03012202FA0F
:1035800003F3FB60FEF728FA0346032B05D13B69E2
:103590001A010F4B13447B6104E03B691A010D4B88
:1035A00013447B617B691B68FA681340BB60BB688E
:1035B000002B09D07B69FA681A607B685B68002B76
:1035C00002D07B685B68984700BF1837BD4680BD56
:1035D00088000058C800005880B489B000AF7860F7
:1035E00039600023FB61894B7B6194E13B681A6879
:1035F0000121FB6901FA03F313403B613B69002B96
:1036000000F086813B685B6803F00303012B05D063
:103610003B685B6803F00303022B30D17B689B6837
:10362000BB61FB695B00032202FA03F3DB43BA6967
:103630001340BB613B68DA68FB695B0002FA03F385
:10364000BA691343BB617B68BA699A607B685B683F
:10365000BB610122FB6902FA03F3DB43BA69134041
:10366000BB613B685B681B0903F00102FB6902FA5E
:1036700003F3BA691343BB617B68BA695A603B685C
:103680005B6803F00303032B17D07B68DB68BB6127
:10369000FB695B00032202FA03F3DB43BA691340C0
:1036A000BB613B689A68FB695B0002FA03F3BA6985
:1036B0001343BB617B68BA69DA603B685B6803F0FF
:1036C0000303022B23D1FB69DA087B68083253F825
:1036D0002230BB61FB6903F007039B000F2202FA53
:1036E00003F3DB43BA691340BB613B681A69FB69AA
:1036F00003F007039B0002FA03F3BA691343BB61AB
:10370000FB69DA087B680832B96943F822107B68E4
:103710001B68BB61FB695B00032202FA03F3DB4316
:10372000BA691340BB613B685B6803F00302FB6945
:103730005B0002FA03F3BA691343BB617B68BA69A1
:103740001A603B685B6803F44033002B00F0E080B4
:103750002F4BD3F8F4302E4A43F00203C2F8F43072
:103760002B4BD3F8F43003F00203FB60FB68294ACB
:10377000FB699B08023352F82330BB61FB6903F0FD
:1037800003039B000F2202FA03F3DB43BA691340E1
:10379000BB617B68204A934252D07B681F4A9342A8
:1037A00031D07B681E4A93422BD07B681D4A9342DE
:1037B00025D07B681C4A93421FD07B681B4A9342EA
:1037C00019D07B681A4A934213D07B68194A9342F6
:1037D0000DD07B68184A934207D07B68174A934202
:1037E00001D109232DE00A232BE0082329E0072338
:1037F00027E0062325E0052323E0042321E003231B
:103800001FE002231DE001231BE000BF80000058E1
:1038100000440258000400580000025800040258F6
:1038200000080258000C02580010025800140258F8
:1038300000180258001C02580020025800240258A8
:103840000023FA6902F0030292009340BA6913431D
:10385000BB613849FB699B080233BA6941F82320F0
:103860004FF0B0431B68BB613B69DB43BA6913404F
:10387000BB613B685B6803F48013002B03D0BA691B
:103880003B691343BB614FF0B042BB6913604FF01B
:10389000B0435B68BB613B69DB43BA691340BB6102
:1038A0003B685B6803F40013002B03D0BA693B69E3
:1038B0001343BB614FF0B042BB6953607B695B68E7
:1038C000BB613B69DB43BA691340BB613B685B6822
:1038D00003F40033002B03D0BA693B691343BB6187
:1038E0007B69BA695A607B691B68BB613B69DB43D2
:1038F000BA691340BB613B685B6803F48033002BFB
:1039000003D0BA693B691343BB617B69BA691A602A
:10391000FB690133FB613B681A68FB6922FA03F318
:10392000002B7FF463AE00BF00BF2437BD465DF8B7
:10393000047B70470004005880B483B000AF786007
:103940000B467B8013467B707B78002B03D07A88F4
:103950007B689A6103E07B881A047B689A6100BFE8
:103960000C37BD465DF8047B7047000080B483B01F
:1039700000AF7860084A7B68203352F82330074A4A
:10398000934201D1002300E0012318460C37BD46C5
:103990005DF8047B704700BF00640258000300809C
:1039A00080B483B000AF7860396006493B6843F467
:1039B00040727B6841F8232000BF0C37BD465DF89C
:1039C000047B70470064025880B584B000AF786013
:1039D000294BDB6803F00703062B0AD0264BDB6874
:1039E00003F03F037A689A4201D0012340E00023AC
:1039F0003EE0214BDB6823F03F021F497B68134305
:103A0000CB60FDF765FEF86009E0FDF761FE024658
:103A1000FB68D31AB3F57A7F01D9012328E0164B4E
:103A20005B6803F40053B3F5005FEED17B681E2B97
:103A300008D07B682E2B05D07B681D2B02D07B68BD
:103A40002D2B14D1FDF744FEF86009E0FDF740FE90
:103A50000246FB68D31AB3F57A7F01D9012307E048
:103A6000054BDB6803F48033B3F5803FEED10023D0
:103A700018461037BD4680BD0048025880B58CB04E
:103A800000AF78607B68002B02D1012300F048BCB6
:103A90007B681B6803F00103002B00F08880994BC2
:103AA0001B6903F03803FB62964B9B6ABB62FB6A9F
:103AB000102B07D0FB6A182B11D1BB6A03F003034C
:103AC000022B0CD18F4B1B6803F40033002B6DD0FD
:103AD0007B685B68002B69D1012300F021BC7B6807
:103AE0005B68B3F5803F06D1864B1B68854A43F47B
:103AF000803313602EE07B685B68002B0CD1814B18
:103B00001B68804A23F4803313607E4B1B687D4A18
:103B100023F4802313601DE07B685B68B3F5A02F5E
:103B20000CD1784B1B68774A43F480231360754BA4
:103B30001B68744A43F4803313600BE0714B1B68BD
:103B4000704A23F4803313606E4B1B686D4A23F474
:103B5000802313607B685B68002B13D0FDF7B8FDF2
:103B6000786208E0FDF7B4FD02467B6AD31A642B45
:103B700001D90323D4E3634B1B6803F40033002B08
:103B8000F0D014E0FDF7A4FD786208E0FDF7A0FD99
:103B900002467B6AD31A642B01D90323C0E3594B35
:103BA0001B6803F40033002BF0D100E000BF7B68FA
:103BB0001B6803F00203002B00F0CA80514B1B6905
:103BC00003F038033B624F4B9B6AFB613B6A002B5F
:103BD00007D03B6A182B56D1FB6903F00303002B77
:103BE00051D1484B1B6803F00403002B05D07B68C0
:103BF000DB68002B01D1012392E3424B1B6823F0C9
:103C000019027B68DB683F4913430B60FDF760FDD9
:103C1000786208E0FDF75CFD02467B6AD31A022B4E
:103C200001D903237CE3374B1B6803F00403002B0B
:103C3000F0D0FDF759FD034641F20302934217D835
:103C40007B681B69402B08D12E4B5B6823F47C33C7
:103C50002C4A43F4003353607AE02A4B5B6823F428
:103C60007C327B681B691B03264913434B606FE062
:103C7000244B5B6823F0FE427B681B691B062149CD
:103C800013434B6064E07B68DB68002B47D01D4B1F
:103C90001B6823F019027B68DB681A4913430B6029
:103CA000FDF716FD786208E0FDF712FD02467B6A1B
:103CB000D31A022B01D9032332E3124B1B6803F002
:103CC0000403002BF0D0FDF70FFD034641F2030281
:103CD000934219D87B681B69402B08D1094B5B685C
:103CE00023F47C33074A43F40033536030E0054B40
:103CF0005B6823F47C327B681B691B030149134317
:103D00004B6025E0004402589A4B5B6823F0FE426A
:103D10007B681B691B06974913434B6018E0954B62
:103D20001B68944A23F001031360FDF7D1FC78620D
:103D300008E0FDF7CDFC02467B6AD31A022B01D9BD
:103D40000323EDE28B4B1B6803F00403002BF0D13F
:103D50007B681B6803F01003002B00F0A980854BE3
:103D60001B6903F03803BB61824B9B6A7B61BB69B3
:103D7000082B07D0BB69182B3AD17B6903F00303EA
:103D8000012B35D17B4B1B6803F48073002B05D0CE
:103D90007B68DB69802B01D00123C1E2FDF7A4FC25
:103DA000034641F20302934217D87B681B6A202B1B
:103DB00008D1704B5B6823F0F8436E4A43F08043B0
:103DC000536075E06B4B5B6823F0F8427B681B6ABD
:103DD0009B06684913434B606AE0664BDB6823F03F
:103DE0007C527B681B6A1B0662491343CB605FE011
:103DF0007B68DB69002B42D05E4B1B685D4A43F059
:103E000080031360FDF764FC786208E0FDF760FC56
:103E100002467B6AD31A022B01D9032380E2554B59
:103E20001B6803F48073002BF0D0FDF75DFC0346A4
:103E300041F20302934217D87B681B6A202B08D1FA
:103E40004C4B5B6823F0F8434A4A43F0804353608D
:103E50002EE0484B5B6823F0F8427B681B6A9B06A8
:103E6000444913434B6023E0424BDB6823F07C5210
:103E70007B681B6A1B063F491343CB6018E03D4B30
:103E80001B683C4A23F080031360FDF721FC786235
:103E900008E0FDF71DFC02467B6AD31A022B01D90C
:103EA00003233DE2334B1B6803F48073002BF0D1F6
:103EB0007B681B6803F00803002B36D07B685B69C6
:103EC000002B19D02B4B5B6F2A4A43F00103536739
:103ED000FDF7FEFB786208E0FDF7FAFB02467B6A1D
:103EE000D31A022B01D903231AE2224B5B6F03F092
:103EF0000203002BF0D018E01E4B5B6F1D4A23F02D
:103F000001035367FDF7E4FB786208E0FDF7E0FB8F
:103F100002467B6AD31A022B01D9032300E2154B18
:103F20005B6F03F00203002BF0D17B681B6803F08A
:103F30002003002B39D07B689B69002B1CD00D4BD4
:103F40001B680C4A43F480531360FDF7C1FB786291
:103F500008E0FDF7BDFB02467B6AD31A022B01D9AC
:103F60000323DDE1034B1B6803F40053002BF0D067
:103F70001BE000BF004402589B4B1B689A4A23F485
:103F800080531360FDF7A4FB786208E0FDF7A0FB07
:103F900002467B6AD31A022B01D90323C0E1924B5C
:103FA0001B6803F40053002BF0D17B681B6803F0FF
:103FB0000403002B00F081808C4B1B688B4A43F478
:103FC00080731360FDF784FB786208E0FDF780FBE7
:103FD00002467B6AD31A642B01D90323A0E1834BE9
:103FE0001B6803F48073002BF0D07B689B68012B67
:103FF00006D17D4B1B6F7C4A43F0010313672DE014
:104000007B689B68002B0CD1774B1B6F764A23F0A3
:1040100001031367744B1B6F734A23F00403136788
:104020001CE07B689B68052B0CD16F4B1B6F6E4AA5
:1040300043F0040313676C4B1B6F6B4A43F001039F
:1040400013670BE0684B1B6F674A23F0010313678C
:10405000654B1B6F644A23F0040313677B689B68FE
:10406000002B15D0FDF734FB78620AE0FDF730FB3A
:1040700002467B6AD31A41F28832934201D9032364
:104080004EE1594B1B6F03F00203002BEED014E0FE
:10409000FDF71EFB78620AE0FDF71AFB02467B6A19
:1040A000D31A41F28832934201D9032338E14E4BAF
:1040B0001B6F03F00203002BEED17B685B6A002BC1
:1040C00000F02D81484B1B6903F03803182B00F0DA
:1040D000BD807B685B6A022B40F09E80424B1B6870
:1040E000414A23F080731360FDF7F2FA786208E02A
:1040F000FDF7EEFA02467B6AD31A022B01D903239D
:104100000EE1394B1B6803F00073002BF0D1364BE6
:104110009A6A374B13407A68916A7A68D26A1201B8
:104120000A43314913438B627B681B6B013BC3F32A
:1041300008027B685B6B013B5B029BB21A437B68A6
:104140009B6B013B1B0403F4FE031A437B68DB6B90
:10415000013B1B0603F0FE43234913430B63224B31
:10416000DB6A214A23F00103D3621F4B5A6B214BB8
:1041700013407A68926CD2001B4913434B631A4B6D
:10418000DB6A23F00C027B681B6C17491343CB627C
:10419000154BDB6A23F002027B685B6C1249134308
:1041A000CB62114BDB6A104A43F48033D3620E4B6F
:1041B000DB6A0D4A43F40033D3620B4BDB6A0A4AD5
:1041C00043F48023D362084BDB6A074A43F00103C0
:1041D000D362054B1B68044A43F080731360FDF7FC
:1041E00077FA786211E000BF004402580048025894
:1041F0000CFCFFFF0700FFFFFDF76AFA02467B6A2F
:10420000D31A022B01D903238AE0474B1B6803F022
:104210000073002BF0D082E0434B1B68424A23F02E
:1042200080731360FDF754FA786208E0FDF750FAE6
:1042300002467B6AD31A022B01D9032370E03A4B62
:104240001B6803F00073002BF0D168E0364B9B6ACB
:104250003B61354B1B6BFB607B685B6A012B31D08C
:104260003B6903F003027B689B6A9A422AD13B694F
:104270001B0903F03F027B68DB6A9A4222D1FB688C
:10428000C3F308027B681B6B013B9A421AD1FB689F
:104290005B0A03F07F027B685B6B013B9A4211D1A2
:1042A000FB681B0C03F07F027B689B6B013B9A420F
:1042B00008D1FB681B0E03F07F027B68DB6B013BC0
:1042C0009A4201D001232BE0174B5B6BDB08C3F351
:1042D0000C033B617B689B6C3A699A421FD0124B7E
:1042E000DB6A114A23F00103D362FDF7F1F978622A
:1042F00000BFFDF7EDF902467B6A9342F9D00A4B05
:104300005A6B0A4B13407A68926CD20006491343E9
:104310004B63054BDB6A044A43F00103D36200237D
:1043200018463037BD4680BD004402580700FFFFE5
:1043300080B586B000AF786039607B68002B01D112
:1043400001239CE18A4B1B6803F00F033A689A42F1
:1043500010D9874B1B6823F00F0285493B68134334
:104360000B60834B1B6803F00F033A689A4201D03D
:10437000012384E17B681B6803F00403002B10D049
:104380007B681A697B4B9B6903F070039A4208D9DA
:10439000784B9B6923F070027B681B697549134356
:1043A0008B617B681B6803F00803002B10D07B68CF
:1043B0005A69704BDB6903F070039A4208D96D4B60
:1043C000DB6923F070027B685B696A491343CB6148
:1043D0007B681B6803F01003002B10D07B689A6980
:1043E000644BDB6903F4E0639A4208D9614BDB69F3
:1043F00023F4E0627B689B695E491343CB617B6871
:104400001B6803F02003002B10D07B68DA69594B3E
:104410001B6A03F070039A4208D9564B1B6A23F0BB
:1044200070027B68DB69534913430B627B681B682E
:1044300003F00203002B10D07B68DA684D4B9B69B8
:1044400003F00F039A4208D94A4B9B6923F00F02ED
:104450007B68DB68474913438B617B681B6803F00B
:104460000103002B55D0434B9B6923F470627B689A
:104470009B68404913438B617B685B68022B07D1C3
:104480003C4B1B6803F40033002B21D10123F6E0E1
:104490007B685B68032B07D1364B1B6803F0007306
:1044A000002B15D10123EAE07B685B68012B07D163
:1044B000304B1B6803F48073002B09D10123DEE02D
:1044C0002C4B1B6803F00403002B01D10123D6E021
:1044D000284B1B6923F007027B685B68254913435F
:1044E0000B61FDF7F5F878610AE0FDF7F1F8024697
:1044F0007B69D31A41F28832934201D90323BEE08B
:104500001C4B1B6903F038027B685B68DB009A4236
:10451000EBD17B681B6803F00203002B10D07B6893
:10452000DA68144B9B6903F00F039A4208D2114BCF
:104530009B6923F00F027B68DB680E4913438B6194
:104540000B4B1B6803F00F033A689A4214D2084BD6
:104550001B6823F00F0206493B6813430B60044BB2
:104560001B6803F00F033A689A4205D0012386E0E6
:1045700000200052004402587B681B6803F00403CB
:10458000002B10D07B681A693F4B9B6903F07003C6
:104590009A4208D23C4B9B6923F070027B681B69EE
:1045A000394913438B617B681B6803F00803002BB8
:1045B00010D07B685A69344BDB6903F070039A4270
:1045C00008D2314BDB6923F070027B685B692E49AE
:1045D0001343CB617B681B6803F01003002B10D0E2
:1045E0007B689A69284BDB6903F4E0639A4208D23E
:1045F000254BDB6923F4E0627B689B692249134306
:10460000CB617B681B6803F02003002B10D07B6814
:10461000DA691D4B1B6A03F070039A4208D21A4BE9
:104620001B6A23F070027B68DB69174913430B6236
:1046300000F034F80246144B9B691B0A03F00F0389
:104640001249CB5C03F01F0322FA03F33B610E4BCC
:104650009B6903F00F030D4AD35C03F01F033A6913
:1046600022FA03F30A4A13600A4A3B6913600A4BB1
:104670001B681846FCF75AFB0346FB73FB7B184686
:104680001837BD4680BD00BF00440258FC830108B6
:1046900004000024000000242400002480B489B019
:1046A00000AFB34B1B6903F03803182B00F25581A0
:1046B00001A252F823F000BF1D4700085B49000823
:1046C0005B4900085B4900085B4900085B4900083A
:1046D0005B4900085B490008434700085B49000844
:1046E0005B4900085B4900085B4900085B4900081A
:1046F0005B4900085B490008494700085B4900081E
:104700005B4900085B4900085B4900085B490008F9
:104710005B4900085B4900084F470008944B1B6841
:1047200003F02003002B09D0914B1B68DB0803F03A
:104730000303904A22FA03F3BB6111E18D4BBB6185
:104740000EE18D4BBB610BE18C4BBB6108E1884BEB
:104750009B6A03F003037B61854B9B6A1B0903F093
:104760003F033B61824BDB6A03F00103FB60804B3C
:104770005B6BDB08C3F30C03FA6802FB03F307EE81
:10478000903AF8EE677AC7ED027A3B69002B00F0A9
:10479000E1807B69022B00F083807B69022B00F2B1
:1047A000A1807B69002B03D07B69012B56D099E057
:1047B0006F4B1B6803F02003002B2DD06C4B1B6844
:1047C000DB0803F003036B4A22FA03F37B607B6888
:1047D00007EE903AF8EE676A3B6907EE903AF8EE1A
:1047E000677A86EEA77A624B1B6BC3F3080307EE6A
:1047F000903AF8EE676A97ED026ADFED615AC6EE0D
:10480000257A76EEA77AF7EE006A77EEA67A67EE5B
:10481000277AC7ED077A87E03B6907EE903AF8EE12
:10482000677ADFED586A86EEA77A514B1B6BC3F3AC
:10483000080307EE903AF8EE676A97ED026ADFED3B
:10484000505AC6EE257A76EEA77AF7EE006A77EE32
:10485000A67A67EE277AC7ED077A65E03B6907EE2F
:10486000903AF8EE677ADFED486A86EEA77A404B19
:104870001B6BC3F3080307EE903AF8EE676A97EDF7
:10488000026ADFED3F5AC6EE257A76EEA77AF7EE9A
:10489000006A77EEA67A67EE277AC7ED077A43E0DB
:1048A0003B6907EE903AF8EE677ADFED386A86EEFC
:1048B000A77A2F4B1B6BC3F3080307EE903AF8EE71
:1048C000676A97ED026ADFED2E5AC6EE257A76EE1C
:1048D000A77AF7EE006A77EEA67A67EE277AC7ED39
:1048E000077A21E03B6907EE903AF8EE677ADFED50
:1048F000266A86EEA77A1E4B1B6BC3F3080307EEEE
:10490000903AF8EE676A97ED026ADFED1D5AC6EE3F
:10491000257A76EEA77AF7EE006A77EEA67A67EE4A
:10492000277AC7ED077A00BF114B1B6B5B0A03F0B8
:104930007F0301333B603B6807EE903AB8EE677A3D
:10494000D7ED076AC6EE877AFCEEE77A17EE903A63
:10495000BB6105E00023BB6102E0074BBB6100BF08
:10496000BB6918462437BD465DF8047B704700BF1D
:10497000004402580090D00300093D0040787D01BA
:10498000000000460024744C0024744A20BCBE4B36
:1049900080B582B000AFFFF781FE0246104B9B69E5
:1049A0001B0A03F00F030F49CB5C03F01F0322FA2D
:1049B00003F37B600A4B9B6903F00F03094AD35C46
:1049C00003F01F037A6822FA03F3074A1360074AC9
:1049D0007B681360044B1B6818460837BD4680BDD2
:1049E00000440258FC830108040000240000002455
:1049F00080B500AFFFF7CCFF0246064BDB691B0911
:104A000003F007030449CB5C03F01F0322FA03F30E
:104A1000184680BD00440258FC83010880B500AFF1
:104A2000FFF7B6FF0246064BDB691B0A03F00703DC
:104A30000449CB5C03F01F0322FA03F3184680BD40
:104A400000440258FC83010880B483B000AF786052
:104A500039607B683F221A601A4B1B6903F007021A
:104A60007B685A60174B9B6903F470627B689A609D
:104A7000144B9B6903F00F027B68DA60114B9B6952
:104A800003F070027B681A610E4BDB6903F0700261
:104A90007B685A610B4BDB6903F4E0627B689A61C7
:104AA000084B1B6A03F070027B68DA61064B1B68D7
:104AB00003F00F023B681A6000BF0C37BD465DF87B
:104AC000047B7047004402580020005280B500AFBC
:104AD000FFF75EFF0246064B1B6A1B0903F0070344
:104AE0000449CB5C03F01F0322FA03F3184680BD90
:104AF00000440258FC83010880B489B000AF78609C
:104B0000A14B9B6A03F00303BB619F4B9B6A1B0B8A
:104B100003F03F037B619C4BDB6A1B0903F001033D
:104B20003B61994BDB6BDB08C3F30C033A6902FB77
:104B300003F307EE903AF8EE677AC7ED037A7B69E4
:104B4000002B00F01181BB69022B00F08380BB6950
:104B5000022B00F2A180BB69002B03D0BB69012BA3
:104B600056D099E0884B1B6803F02003002B2DD012
:104B7000854B1B68DB0803F00303844A22FA03F326
:104B8000BB60BB6807EE903AF8EE676A7B6907EE98
:104B9000903AF8EE677A86EEA77A7B4B9B6BC3F36D
:104BA000080307EE903AF8EE676A97ED036ADFEDC7
:104BB000785AC6EE257A76EEA77AF7EE006A77EE97
:104BC000A67A67EE277AC7ED077A87E07B6907EE5A
:104BD000903AF8EE677ADFED6F6A86EEA77A6A4B55
:104BE0009B6BC3F3080307EE903AF8EE676A97ED04
:104BF000036ADFED675AC6EE257A76EEA77AF7EEFE
:104C0000006A77EEA67A67EE277AC7ED077A65E045
:104C10007B6907EE903AF8EE677ADFED5F6A86EE21
:104C2000A77A594B9B6BC3F3080307EE903AF8EE53
:104C3000676A97ED036ADFED565AC6EE257A76EE7F
:104C4000A77AF7EE006A77EEA67A67EE277AC7EDC5
:104C5000077A43E07B6907EE903AF8EE677ADFED7A
:104C60004F6A86EEA77A484B9B6BC3F3080307EEA7
:104C7000903AF8EE676A97ED036ADFED455AC6EEA3
:104C8000257A76EEA77AF7EE006A77EEA67A67EED7
:104C9000277AC7ED077A21E07B6907EE903AF8EEB4
:104CA000677ADFED3D6A86EEA77A374B9B6BC3F3DD
:104CB000080307EE903AF8EE676A97ED036ADFEDB6
:104CC000345AC6EE257A76EEA77AF7EE006A77EECA
:104CD000A67A67EE277AC7ED077A00BF2A4B9B6B4F
:104CE0005B0A03F07F0307EE903AF8EE677AB7EEBF
:104CF000007A37EE877AD7ED076AC6EE877AFCEE40
:104D0000E77A17EE902A7B681A601F4B9B6B1B0C8F
:104D100003F07F0307EE903AF8EE677AB7EE007A79
:104D200037EE877AD7ED076AC6EE877AFCEEE77A28
:104D300017EE902A7B685A60134B9B6B1B0E03F097
:104D40007F0307EE903AF8EE677AB7EE007A37EE17
:104D5000877AD7ED076AC6EE877AFCEEE77A17EE18
:104D6000902A7B689A6008E07B6800221A607B6862
:104D700000225A607B6800229A6000BF2437BD463B
:104D80005DF8047B704700BF004402580090D003D8
:104D9000000000460024744C0024744A20BCBE4B22
:104DA00080B489B000AF7860A14B9B6A03F0030325
:104DB000BB619F4B9B6A1B0D03F03F037B619C4BC8
:104DC000DB6A1B0A03F001033B61994B5B6CDB0858
:104DD000C3F30C033A6902FB03F307EE903AF8EED3
:104DE000677AC7ED037A7B69002B00F01181BB69FC
:104DF000022B00F08380BB69022B00F2A180BB690B
:104E0000002B03D0BB69012B56D099E0884B1B685F
:104E100003F02003002B2DD0854B1B68DB0803F02B
:104E20000303844A22FA03F3BB60BB6807EE903A9F
:104E3000F8EE676A7B6907EE903AF8EE677A86EEDD
:104E4000A77A7B4B1B6CC3F3080307EE903AF8EE8E
:104E5000676A97ED036ADFED785AC6EE257A76EE3B
:104E6000A77AF7EE006A77EEA67A67EE277AC7EDA3
:104E7000077A87E07B6907EE903AF8EE677ADFED14
:104E80006F6A86EEA77A6A4B1B6CC3F3080307EEC2
:104E9000903AF8EE676A97ED036ADFED675AC6EE5F
:104EA000257A76EEA77AF7EE006A77EEA67A67EEB5
:104EB000277AC7ED077A65E07B6907EE903AF8EE4E
:104EC000677ADFED5F6A86EEA77A594B1B6CC3F3F6
:104ED000080307EE903AF8EE676A97ED036ADFED94
:104EE000565AC6EE257A76EEA77AF7EE006A77EE86
:104EF000A67A67EE277AC7ED077A43E07B6907EE6B
:104F0000903AF8EE677ADFED4F6A86EEA77A484B63
:104F10001B6CC3F3080307EE903AF8EE676A97ED4F
:104F2000036ADFED455AC6EE257A76EEA77AF7EEEC
:104F3000006A77EEA67A67EE277AC7ED077A21E056
:104F40007B6907EE903AF8EE677ADFED3D6A86EE10
:104F5000A77A374B1B6CC3F3080307EE903AF8EEC1
:104F6000676A97ED036ADFED345AC6EE257A76EE6E
:104F7000A77AF7EE006A77EEA67A67EE277AC7ED92
:104F8000077A00BF2A4B1B6C5B0A03F07F0307EE16
:104F9000903AF8EE677AB7EE007A37EE877AD7ED77
:104FA000076AC6EE877AFCEEE77A17EE902A7B68EE
:104FB0001A601F4B1B6C1B0C03F07F0307EE903A2B
:104FC000F8EE677AB7EE007A37EE877AD7ED076AA0
:104FD000C6EE877AFCEEE77A17EE902A7B685A6075
:104FE000134B1B6C1B0E03F07F0307EE903AF8EE99
:104FF000677AB7EE007A37EE877AD7ED076AC6EEA2
:10500000877AFCEEE77A17EE902A7B689A6008E0D0
:105010007B6800221A607B6800225A607B6800224D
:105020009A6000BF2437BD465DF8047B704700BF1F
:10503000004402580090D003000000460024744C45
:105040000024744A20BCBE4B80B582B000AF7860AB
:105050007B68002B01D1012349E07B6893F83D3048
:10506000DBB2002B06D17B68002283F83C207868F5
:1050700000F041F87B68022283F83D207B681A68C3
:105080007B6804331946104600F0E8F97B6801227A
:1050900083F848207B68012283F83E207B68012248
:1050A00083F83F207B68012283F840207B6801223F
:1050B00083F841207B68012283F842207B6801222B
:1050C00083F843207B68012283F844207B68012217
:1050D00083F845207B68012283F846207B68012203
:1050E00083F847207B68012283F83D20002318467F
:1050F0000837BD4680BD80B483B000AF786000BF84
:105100000C37BD465DF8047B7047000080B485B065
:1051100000AF78607B6893F83D30DBB2012B01D0A3
:10512000012354E07B68022283F83D207B681B68E2
:10513000DA687B681B6842F00102DA607B681B68F2
:10514000264A934222D07B681B68B3F1804F1DD062
:105150007B681B68224A934218D07B681B68214AEF
:10516000934213D07B681B681F4A93420ED07B6822
:105170001B681E4A934209D07B681B681C4A9342F5
:1051800004D07B681B681B4A934215D17B681B685F
:105190009A68194B1340FB60FB68062B15D0FB681F
:1051A000B3F5803F11D07B681B681A687B681B6869
:1051B00042F001021A6008E07B681B681A687B688D
:1051C0001B6842F001021A6000E000BF002318468D
:1051D0001437BD465DF8047B704700BF00000140F6
:1051E0000004004000080040000C004000040140A2
:1051F00000180040004001400700010080B584B065
:1052000000AF78607B681B68DB68FB607B681B68AD
:105210001B69BB60BB6803F00203002B20D0FB6856
:1052200003F00203002B1BD07B681B686FF00202A7
:105230001A617B6801221A777B681B689B6903F0FF
:105240000303002B03D0786800F0E9F805E07868E4
:1052500000F0DBF8786800F0ECF87B6800221A7741
:10526000BB6803F00403002B20D0FB6803F00403A9
:10527000002B1BD07B681B686FF004021A617B68EF
:1052800002221A777B681B689B6903F44073002B2A
:1052900003D0786800F0C3F805E0786800F0B5F84E
:1052A000786800F0C6F87B6800221A77BB6803F0C4
:1052B0000803002B20D0FB6803F00803002B1BD051
:1052C0007B681B686FF008021A617B6804221A77FA
:1052D0007B681B68DB6903F00303002B03D078684D
:1052E00000F09DF805E0786800F08FF8786800F02D
:1052F000A0F87B6800221A77BB6803F01003002B2C
:1053000020D0FB6803F01003002B1BD07B681B68C8
:105310006FF010021A617B6808221A777B681B689D
:10532000DB6903F44073002B03D0786800F077F852
:1053300005E0786800F069F8786800F07AF87B6832
:1053400000221A77BB6803F00103002B0CD0FB6826
:1053500003F00103002B07D07B681B686FF001028C
:105360001A617868FBF7ACFCBB6803F08003002B84
:1053700004D1BB6803F40053002B0CD0FB6803F08E
:105380008003002B07D07B681B686FF402521A6100
:10539000786800F00DF9BB6803F48073002B0CD023
:1053A000FB6803F08003002B07D07B681B686FF459
:1053B00080721A61786800F005F9BB6803F0400359
:1053C000002B0CD0FB6803F04003002B07D07B6858
:1053D0001B686FF040021A61786800F034F8BB680F
:1053E00003F02003002B0CD0FB6803F02003002BFC
:1053F00007D07B681B686FF020021A61786800F0A4
:10540000CDF800BF1037BD4680BD80B483B000AF7B
:10541000786000BF0C37BD465DF8047B704780B4F0
:1054200083B000AF786000BF0C37BD465DF8047BE9
:10543000704780B483B000AF786000BF0C37BD46C2
:105440005DF8047B704780B483B000AF786000BF24
:105450000C37BD465DF8047B7047000080B485B012
:1054600000AF786039607B681B68FB607B68434AEB
:10547000934213D07B68B3F1804F0FD07B68404AD2
:1054800093420BD07B683F4A934207D07B683E4AE9
:10549000934203D07B683D4A934208D1FB6823F0D6
:1054A0007003FB603B685B68FA681343FB607B68D2
:1054B000324A93421FD07B68B3F1804F1BD07B6888
:1054C0002F4A934217D07B682E4A934213D07B68B1
:1054D0002D4A93420FD07B682C4A93420BD07B68B5
:1054E0002B4A934207D07B682A4A934203D07B68B9
:1054F000294A934208D1FB6823F44073FB603B6860
:10550000DB68FA681343FB60FB6823F080023B68AA
:105510005B691343FB603B689A687B68DA623B68AF
:105520001A687B689A627B68144A93420FD07B6842
:10553000164A93420BD07B68154A934207D07B688A
:10554000144A934203D07B68134A934203D13B68C9
:105550001A697B681A637B681B6843F004027B68E6
:105560001A607B6801225A617B68FA681A6000BF82
:105570001437BD465DF8047B704700BF0000014052
:105580000004004000080040000C004000040140FE
:1055900000400140004401400048014080B483B015
:1055A00000AF786000BF0C37BD465DF8047B7047E4
:1055B00080B483B000AF786000BF0C37BD465DF8A3
:1055C000047B704780B483B000AF786000BF0C37B5
:1055D000BD465DF8047B704780B582B000AF78604F
:1055E0007B68002B01D1012342E07B68D3F888302F
:1055F000002B06D17B68002283F88420786800F0B5
:105600003BF87B682422C3F888207B681B681A68F3
:105610007B681B6822F001021A607B689B6A002B82
:1056200002D0786800F028FE786800F0BDF80346E4
:10563000012B01D101231BE07B681B685A687B6842
:105640001B6822F490425A607B681B689A687B68EA
:105650001B6822F02A029A607B681B681A687B68C4
:105660001B6842F001021A60786800F0A7FE03464A
:1056700018460837BD4680BD80B483B000AF78605F
:1056800000BF0C37BD465DF8047B704780B58AB01B
:1056900002AFF860B9603B601346FB80FB68D3F84B
:1056A0008830202B7BD1BB68002B02D0FB88002BDD
:1056B00001D1012374E0FB680022C3F89020FB684D
:1056C0002122C3F88820FCF703F87861FB68FA8888
:1056D000A3F85420FB68FA88A3F85620FB689B685F
:1056E000B3F5805F08D1FB681B69002B04D1002350
:1056F000FB61BB68BB6103E0BB68FB610023BB616E
:1057000030E03B6800937B6900228021F86800F05C
:10571000FFFE0346002B05D0FB682022C3F888203B
:1057200003233DE0FB69002B0BD1BB691B881A46A4
:10573000FB681B68C2F308029A62BB690233BB6153
:1057400007E0FB691A78FB681B689A62FB69013302
:10575000FB61FB68B3F856309BB2013B9AB2FB6821
:10576000A3F85620FB68B3F856309BB2002BC8D183
:105770003B6800937B6900224021F86800F0C8FE76
:105780000346002B05D0FB682022C3F888200323A2
:1057900006E0FB682022C3F88820002300E00223F3
:1057A00018462037BD4680BD2DE9B04F92B000AFFE
:1057B0007861002387F842307B699A687B691B69AE
:1057C0001A437B695B691A437B69DB6913437B641A
:1057D0007B691B681A68BE4B13407A691268796C42
:1057E0000B4313607B691B685B6823F440517B6942
:1057F000DA687B691B680A435A607B699B697B6432
:105800007B691B68B34A934204D07B691B6A7A6C3C
:1058100013437B647B691B689A68AF4B13407A69BA
:105820001268796C0B4393607B691B68DB6A23F019
:105830000F017B695A6A7B691B680A43DA627B69DC
:105840001B68A64A934277D1A54B5B6D03F03803E2
:10585000282B6DD801A252F823F000BF015900088F
:1058600031590008315900083159000831590008F0
:105870003159000831590008315900080959000808
:1058800031590008315900083159000831590008D0
:1058900031590008315900083159000811590008E0
:1058A00031590008315900083159000831590008B0
:1058B00031590008315900083159000819590008B8
:1058C0003159000831590008315900083159000890
:1058D0003159000831590008315900082159000890
:1058E0003159000831590008315900083159000870
:1058F0003159000831590008315900082959000868
:10590000012387F8433022E2042387F843301EE264
:10591000082387F843301AE2102387F8433016E251
:10592000202387F8433012E2402387F843300EE209
:10593000802387F843300AE27B691B68694A9342F7
:1059400030D1674B5B6D03F00703052B26D801A20E
:1059500052F823F06D590008755900087D59000868
:10596000855900088D59000895590008002387F8CB
:105970004330ECE1042387F84330E8E1082387F85B
:105980004330E4E1102387F84330E0E1202387F837
:105990004330DCE1402387F84330D8E1802387F8A7
:1059A0004330D4E17B691B684F4A934230D14C4B62
:1059B0005B6D03F00703052B26D801A252F823F0F4
:1059C000D9590008E1590008E9590008F1590008BF
:1059D000F9590008015A0008002387F84330B6E15E
:1059E000042387F84330B2E1082387F84330AEE15F
:1059F000102387F84330AAE1202387F84330A6E13B
:105A0000402387F84330A2E1802387F843309EE1AA
:105A10007B691B68354A934230D1314B5B6D03F093
:105A20000703052B26D801A252F823F0455A000897
:105A30004D5A0008555A00085D5A0008655A00087A
:105A40006D5A0008002387F8433080E1042387F86B
:105A500043307CE1082387F8433078E1102387F84E
:105A6000433074E1202387F8433070E1402387F806
:105A700043306CE1802387F8433068E17B691B6821
:105A80001B4A934242D1164B5B6D03F00703052B73
:105A900038D801A252F823F0B15A0008B95A0008C8
:105AA000C15A0008C95A0008F55A0008FD5A0008F2
:105AB000002387F843304AE1042387F8433046E166
:105AC000082387F8433042E1102387F843303EE152
:105AD000F369FFCF000C0058FFF4FF1100100140E4
