:020000040810E2
:100000000000021049041008E9031008F103100869
:10001000F90310080104100809041008000000008A
:1000200000000000000000000000000011041008A3
:100030001F041008000000002D0410083B041008E5
:100040009D0410089D0410089D0410089D041008CC
:100050009D0410089D0410089D0410089D041008BC
:100060009D0410089D0410089D0410089D041008AC
:100070009D0410089D0410089D0410089D0410089C
:100080009D0410089D0410089D0410089D0410088C
:100090009D0410089D0410089D0410089D0410087C
:1000A0009D0410089D0410089D0410089D0410086C
:1000B0009D0410089D0410089D0410089D0410085C
:1000C0009D0410089D0410089D0410089D0410084C
:1000D0009D0410089D0410089D0410089D0410083C
:1000E0009D0410089D041008000000009D041008E5
:1000F0009D0410089D0410089D0410089D0410081C
:100100009D0410089D0410089D0410089D0410080B
:100110009D0410089D0410089D0410089D041008FB
:100120009D0410089D0410089D0410089D041008EB
:100130009D0410089D0410089D0410089D041008DB
:100140009D0410089D04100800000000000000003D
:100150009D0410089D0410089D0410089D041008BB
:100160009D0410089D0410089D0410089D041008AB
:100170009D0410089D0410089D0410089D0410089B
:100180009D0410089D0410089D0410089D0410088B
:100190009D0410089D0410089D0410089D0410087B
:1001A0009D0410089D0410089D0410089D0410086B
:1001B0009D0410089D0410089D0410089D0410085B
:1001C0009D0410089D0410089D0410089D0410084B
:1001D0009D0410089D0410089D0410089D0410083B
:1001E0009D0410089D0410089D0410089D0410082B
:1001F0009D0410089D0410089D0410089D0410081B
:100200009D0410089D0410089D0410089D0410080A
:100210009D0410089D0410089D0410089D041008FA
:100220009D0410089D0410089D04100800000000A3
:100230009D0410089D0410089D0410089D041008DA
:100240009D0410089D0410089D0410089D041008CA
:100250009D0410089D0410089D0410089D041008BA
:100260009D0410089D0410089D0410089D041008AA
:100270009D0410089D0410089D0410089D0410089A
:100280009D0410089D0410089D0410080000000043
:080290009D0410089D041008F4
:1002980010B5054C237833B9044B13B10448AFF3B8
:1002A80000800123237010BD100000100000000022
:1002B8004C0C100808B5034B1BB103490348AFF3B6
:1002C800008008BD00000000140000104C0C10084D
:1002D80080B400AF094BD3F88830084A43F4700360
:1002E800C2F88830054B1B69044A43F010031361B8
:1002F80000BFBD465DF8047B704700BF00ED00E01D
:1003080080B400AF094BDB68084A23F00203D360CE
:1003180000BF064B5B6803F40053002BF9D000BF05
:1003280000BFBD465DF8047B704700BF0048025817
:1003380080B582B000AF1A4BD3F8E030184A43F0CA
:100348000073C2F8E030164BD3F8E03003F00073C6
:100358007B607B68012000F03DFA00F0C7FA0122BB
:100368000221002000F048FA0E4B1B6803F0F0034E
:10037800702B08D10C4BD3F804310B4A43F001031E
:10038800C2F8043107E0084BD3F81431064A43F0A9
:100398000103C2F8143100F07FF800BFFDE700BF89
:1003A8000044025800ED00E00064025880B483B0B5
:1003B80000AF0A4BD3F8F430084A43F00203C2F8FE
:1003C800F430064BD3F8F43003F002037B607B680B
:1003D80000BF0C37BD465DF8047B704700440258E7
:1003E80080B400AF00BFFDE780B400AF00BFFDE7F9
:1003F80080B400AF00BFFDE780B400AF00BFFDE7E9
:1004080080B400AF00BFFDE780B400AF00BFBD46B9
:100418005DF8047B704780B400AF00BFBD465DF84F
:10042800047B704780B400AF00BFBD465DF8047B15
:10043800704780B500AF00F0C3F800BF80BD000072
:10044800DFF838D0FFF75CFFFFF742FF0C480D4993
:100458000D4A002302E0D458C4500433C4188C4217
:10046800F9D30A4A0A4C002301E013600432A2427D
:10047800FBD300F0C3FBFFF75BFF704700000210DF
:1004880000000010100000107C0C10081000001074
:1004980030000010FEE7000080B582B000AF284BA6
:1004A800D3F8D830264A43F48043C2F8D830244BD6
:1004B800D3F8D83003F480433B603B68214B1B687A
:1004C80023F47F2323F470631E4A43F4014313602B
:1004D8001C4B1B681B4A43F001031360032000F008
:1004E80035F900F011FA0246154B9B691B0A03F017
:1004F8000F031549CB5C03F01F0322FA03F37B605B
:100508000F4B9B6903F00F030F4AD35C03F01F03E3
:100518007A6822FA03F30D4A13600C4B1B680C4AE5
:100528001360002000F016F80346002B01D00123C9
:1005380002E0FFF73BFF002318460837BD4680BDA1
:100548000044025800440240640C100804000010E3
:100558000000001080B582B000AF7860154B1B78A2
:10056800002B01D1012321E0134B1A68114B1B7892
:1005780019464FF47A73B3FBF1F3B2FBF3F3184661
:1005880000F009F90346002B01D001230EE07B6837
:100598000F2B0AD8002279684FF0FF3000F0E1F8FD
:1005A800064A7B681360002300E0012318460837D9
:1005B800BD4680BD0C0000100000001008000010AF
:1005C80080B400AF064B1B781A46064B1B681344D1
:1005D800044A136000BFBD465DF8047B704700BF46
:1005E8000C0000102C00001080B485B000AF7860BB
:1005F8007B6803F00703FB600C4BDB68BB60BA68E1
:100608004FF6FF031340BB60FB681A02BB68134335
:1006180043F0BF6343F40033BB60044ABB68D36054
:1006280000BF1437BD465DF8047B704700ED00E05D
:1006380080B400AF044BDB681B0A03F007031846BD
:10064800BD465DF8047B704700ED00E080B483B0E0
:1006580000AF03463960FB80B7F90630002B0ADB90
:100668003B68DAB20C49B7F906301201D2B20B4432
:1006780083F800230AE03B68DAB20849FB8803F0F4
:100688000F03043B1201D2B20B441A7600BF0C3799
:10069800BD465DF8047B704700E100E000ED00E036
:1006A80080B489B000AFF860B9607A60FB6803F085
:1006B8000703FB61FB69C3F10703042B28BF04236D
:1006C800BB61FB690433062B02D9FB69033B00E0DD
:1006D80000237B614FF0FF32BB6902FA03F3DA4370
:1006E800BB681A407B699A404FF0FF317B6901FA79
:1006F80003F3D9437B680B40134318462437BD46A0
:100708005DF8047B7047000080B582B000AF786068
:100718007B68013BB3F1807F01D301230FE00A4AD4
:100728007B68013B53600F214FF0FF30FFF78EFFCE
:10073800054B00229A60044B07221A6000231846D2
:100748000837BD4680BD00BF10E000E080B582B02C
:1007580000AF78607868FFF747FF00BF0837BD46ED
:1007680080BD80B586B000AF0346B9607A60FB8172
:10077800FFF75EFF78617A68B9687869FFF790FFDC
:100788000246B7F90E3011461846FFF75FFF00BF63
:100798001837BD4680BD80B582B000AF78607868F4
:1007A800FFF7B2FF034618460837BD4680BD000074
:1007B80080B400AF064B1B6803F0F003702B01D127
:1007C800032300E001231846BD465DF8047B70470B
:1007D80000ED00E080B483B000AF7860054B1A6884
:1007E80004497B6813430B6000BF0C37BD465DF8B6
:1007F800047B70471065025880B584B000AFF8607C
:100808000B467A60FB72374B1B6823F001023549AF
:10081800FB6813430B607B68002B23D1FFF7C8FFED
:100828000346032B58D12F4B1B692E4A23F0010393
:1008380013612D4B1B692C4A43F004031361BFF36A
:100848004F8F00BFBFF36F8F00BFFB7A012B01D121
:1008580030BF00E020BF244B1B69234A23F0040368
:1008680013613CE07B68012B23D1FFF7A1FF03460E
:10087800012B33D11B4B5B691A4A23F002035361E6
:10088800194B1B69184A43F004031361BFF34F8FD8
:1008980000BFBFF36F8F00BFFB7A012B01D130BFC0
:1008A80000E020BF104B1B690F4A23F004031361BB
:1008B80015E0FFF77DFF0346032B06D1094B1B69A3
:1008C800084A23F00403136109E0064B5B69054AF3
:1008D80023F00403536102E000BF00E000BF1037BB
:1008E800BD4680BD0048025800ED00E080B500AF6D
:1008F800FFF75EFF0346032B01D120BF01E040BF95
:1009080020BF00BF80BD000080B489B000AFB34BEA
:100918001B6903F03803182B00F2558101A252F825
:1009280023F000BF91091008CF0B1008CF0B100857
:10093800CF0B1008CF0B1008CF0B1008CF0B1008E7
:10094800CF0B1008B7091008CF0B1008CF0B1008F1
:10095800CF0B1008CF0B1008CF0B1008CF0B1008C7
:10096800CF0B1008BD091008CF0B1008CF0B1008CB
:10097800CF0B1008CF0B1008CF0B1008CF0B1008A7
:10098800CF0B1008C3091008944B1B6803F0200311
:10099800002B09D0914B1B68DB0803F00303904A36
:1009A80022FA03F3BB6111E18D4BBB610EE18D4B64
:1009B800BB610BE18C4BBB6108E1884B9B6A03F080
:1009C80003037B61854B9B6A1B0903F03F033B6173
:1009D800824BDB6A03F00103FB60804B5B6BDB0837
:1009E800C3F30C03FA6802FB03F307EE903AF8EE40
:1009F800677AC7ED027A3B69002B00F0E1807B69DA
:100A0800022B00F083807B69022B00F2A1807B69B6
:100A1800002B03D07B69012B56D099E06F4B1B68E4
:100A280003F02003002B2DD06C4B1B68DB0803F070
:100A380003036B4A22FA03F37B607B6807EE903A64
:100A4800F8EE676A3B6907EE903AF8EE677A86EE49
:100A5800A77A624B1B6BC3F3080307EE903AF8EED4
:100A6800676A97ED026ADFED615AC6EE257A76EE7F
:100A7800A77AF7EE006A77EEA67A67EE277AC7EDCF
:100A8800077A87E03B6907EE903AF8EE677ADFED80
:100A9800586A86EEA77A514B1B6BC3F3080307EE1F
:100AA800903AF8EE676A97ED026ADFED505AC6EEA3
:100AB800257A76EEA77AF7EE006A77EEA67A67EEE1
:100AC800277AC7ED077A65E03B6907EE903AF8EEBA
:100AD800677ADFED486A86EEA77A404B1B6BC3F353
:100AE800080307EE903AF8EE676A97ED026ADFEDC1
:100AF8003F5AC6EE257A76EEA77AF7EE006A77EEC9
:100B0800A67A67EE277AC7ED077A43E03B6907EED6
:100B1800903AF8EE677ADFED386A86EEA77A2F4BBF
:100B28001B6BC3F3080307EE903AF8EE676A97ED7C
:100B3800026ADFED2E5AC6EE257A76EEA77AF7EE30
:100B4800006A77EEA67A67EE277AC7ED077A21E082
:100B58003B6907EE903AF8EE677ADFED266A86EE93
:100B6800A77A1E4B1B6BC3F3080307EE903AF8EE07
:100B7800676A97ED026ADFED1D5AC6EE257A76EEB2
:100B8800A77AF7EE006A77EEA67A67EE277AC7EDBE
:100B9800077A00BF114B1B6B5B0A03F07F0301331D
:100BA8003B603B6807EE903AB8EE677AD7ED076A84
:100BB800C6EE877AFCEEE77A17EE903ABB6105E05D
:100BC8000023BB6102E0074BBB6100BFBB6918464D
:100BD8002437BD465DF8047B704700BF00440258C7
:100BE8000090D00300093D0040787D0100000046D8
:100BF8000024744C0024744A20BCBE4B70B50D4DC3
:100C08000D4C641BA4100026A64209D10B4D0C4CB8
:100C180000F018F8641BA4100026A64205D170BD88
:100C280055F8043B98470136EEE755F8043B9847DA
:100C38000136F2E7740C1008740C1008740C1008D4
:100C4800780C1008F8B500BFF8BC08BC9E46704781
:0C0C5800F8B500BFF8BC08BC9E46704711
:100C6400000000000102030401020304060708094E
:040C7400BD021008A5
:040C780099021008C5
:100C7C000090D0030090D003100000000100000091
:040000050810044992
:00000001FF
